:020000040000FA
:080000000002040000000000F2
:020000040000FA
:10000800A00E0000A00E0000A00E0000A00E000030
:10001800A00E0000A00E0000A00E0000A00E000020
:10002800A00E0000A00E0000A00E0000A00E000010
:10003800A00E0000A00E0000A00E0000A00E000000
:020000040000FA
:020000040000FA
:100400000F8020000E7F22000E01880000000000F7
:10041000000020000000E000020032000001200087
:100420002002880014000700590007000000E000C7
:1004300003003A0000002000010020000200370005
:100440000000200001002000810F70000100320038
:1004500014000700000020000000E000020032004D
:100460000000020000000000860A020000000000F8
:100470000040DA000000FE004440A900C07B2000DC
:100480000000E0000300320000002000A00188000E
:100490004440A800000006008A1F78008B1F7800E7
:1004A0000000060091018800800478000000EB0045
:1004B0001A003700E284440032A0B4009905BA0063
:1004C000E284440032A0B4009906BA00E2844400F9
:1004D00032A0B4000006EB00476FDE00FD07B2005B
:1004E000636CE10003003A00EBFF07000000EB0043
:1004F0000A003700606CE10004003A00005DEB0088
:100500008B05E900FDFF3E00040037006168E10053
:10051000010032000086EB000B00070019C7BA008B
:100520001905BA000E04E00003003A000A00E000DA
:10053000E0FF3A0000000600FE07B2009E018800BE
:100540008A047800F5FF3700395DBA008B05E900B1
:100550000C003200295DBA008B05E900080032006A
:100560000C00E00003003A00E284440032A0B40032
:10057000F5FF370019DDBA008B05E900FAFF3A00F4
:100580008904E800E184440032A0B40000000600C1
:040590000000050062
:020000040000FA
:10059400202F00008CA9000042270000A94500007C
:1005A40007AE000042A7000037FE0000FF2F000046
:1005B400F0FF00008860000019220000C07F0000E6
:1005C40078B000000025000062920000E102000003
:1005D400083A0000080000007890000000230000A2
:1005E40012140000E1020000083A000004000000B8
:1005F40022A000007FE0000010040000EB000000D7
:10060400483A00000C00000022A000007FEB00002C
:1006140000480000A9CC000022A80000C822000065
:10062400A8680000A0A90000CC020000A9C800002E
:1006340002000000000000000000000000AF000005
:10064400CA22000037A2000000EB000000040000F2
:10065400802600003580000027360000A8A4000092
:1006640006A90000A4260000A8A4000046A90000D2
:10067400A4660000A9A4000086A80000C406000027
:10068400A8C4000026A90000C4460000A9C40000B4
:1006940066A90000C4860000A8C4000022A90000C6
:1006A400C0220000EB8000000020000020020000B7
:1006B4008840000011A8000020620000A82100006A
:1006C400E2A80000234200000773000000B100000C
:1006D400100C0000320B000000B1000030020000DA
:1006E400327F000000200000200400008820000069
:1006F40011200000C0040000882000001120000028
:10070400400300008820000011200000B002000017
:100714008820000011370000730000002040000012
:100724000D88000020110000201000000088000047
:10073400201100002020000000880000201100008B
:1007440020B000000488000020110000EB0000002D
:10075400070700005C00000088900000010700000B
:100764005A000000B7030000E10700005800000031
:10077400B7020000E1BF00000281000078800000A1
:100784000278000000020000075300000078000017
:10079400800600000751000000780000800100007E
:1007A40020020000800700004E00000078000000D6
:1007B40059E90000830100003AFC0000FFE000005A
:1007C4000E0400003203000000200000E0040000DA
:1007D4008820000011370000E8FF00002A03000011
:1007E4007CE10000032800003E10000000E000004F
:1007F400050000003A120000002000000280000002
:10080400B3400000C078000000590000B3000000AD
:10081400C078000000590000B3800000CA780000CE
:1008240000590000B3000000C07800000059000027
:10083400B3000000C078000000590000B3000000BD
:10084400C0780000005900003704000000EB0000ED
:100854008000000020000000058800002011000036
:1008640037D10000FF20000002800000A70D000027
:1008740010370000020000002FF10000FF370000D5
:10088400CAFF0000A60100000037000004000000B9
:10089400BB8500000A24000020040000071A0000A1
:1008A40000EB0000800000002003000004BB0000F7
:1008B400B2CA0000BBB200005ABB0000B25A00002A
:1008C400E9830000013A0000FBFF0000241000004F
:1008D40000070000110000002003000004200000B5
:1008E40002800000BA140000C0E1000032040000DD
:1008F4003A09000000BA000034400000E132000070
:10090400043A000006000000BA34000040E1000090
:10091400320400003A03000000E9000083010000F3
:100924003AF50000FF370000AEFF00002060000031
:10093400058800002011000037AD0000FF8800008A
:10094400003B00002050000005880000303B000000
:1009540020A000000A880000303B0000A8610000CD
:10096400E7000000000000000000000000AF0000ED
:1009740061E7000037FE0000FF06000000000000F1
:10098400201A000001EB000080050000FE000000BA
:1009940060AE000022020000370300000080000067
:1009A40030110000470000000706000000000000AE
:1009B400E98B0000053A0000F8FF0000E90A000096
:1009C400053A0000F5FF0000202F00008CA600006F
:1009D40008000000AECA00002237000068FF0000D3
:1009E400A985000060A9000085800000A9230000FB
:1009F40042A9000021E20000EF02000021A900004A
:100A0400C4220000A8C0000022880000263500008F
:100A14008827000036A9000068A00000A8C80000CC
:100A24000220000000000000886000001937000068
:100A340038FF00002FF80000FF37000058FF0000C7
:100A4400FA0000000000000000000000F9000000AF
:100A5400010000000000000037C90000FE00000093
:100A640005040000FA00000000000000000000007F
:100A7400F9000000010000000000000000DF000099
:100A8400F9000000D5000000FA000000000000009A
:100A940000000000F9000000010000000000000058
:100AA400007F00003F000000EB00000000FF00009A
:100AB4000000000000000000000000000000000032
:100AC40000000000FFFF0000FFFF0000FFFF000028
:100AD400FFFF0000FFFF0000FFFF0000FFFF00001A
:100AE400FFFF0000FFFF0000FFFF0000FFFF00000A
:100AF400FFFF0000FFFF0000FFFF0000FFFF0000FA
:100B0400FFFF0000FFFF0000FFFF0000FFFF0000E9
:10117400FFFF0000FFFF000037B80000FE00000082
:101184000504000000DF0000F90000007F3F0000BC
:101194000045000072610000736900006E67000082
:1011A400200000002E2E00002E000000206400000D
:1011B4006F6E000065000000577200006974000043
:1011C400696E000067200000726F00007720000045
:1011D400002000002020000020550000706700005F
:1011E400726100006465000020630000616E00000D
:1011F400636500006C6C0000656400002E00000054
:10120400646F00006E65000000450000726100001C
:10121400736900006E670000203000007830000021
:1012240030300000302E00002E2E00000057000049
:1012340072690000746900006E670000207200008B
:101244006F770000203000002E2E00002E200000BA
:1012540000530000756300006365000073730000B1
:1012640021000000557000006C6F000061640000F4
:10127400206E00006577000020660000697200009F
:101284006D7700006172000065200000776900003E
:101294007468000020740000686500002064000089
:1012A40073330000302000004C6F000061640000C4
:1012B400657200002061000070700000207400005E
:1012C4006F200000636F00006D7000006C6500000B
:1012D400746500002074000068650000207500003B
:1012E4007067000072610000646500002E00000059
:1012F400556E00006976000065720000736100009D
:101304006C2000004453000033300000204C0000E7
:101314006F6100006465000072200000696E0000C7
:1013240073740000616C00006C65000072200000A2
:10133400763000002E3400002028000043290000ED
:101344006872000069730000203200003031000030
:1013540030000000526500006C65000061730000FD
:1013640065640000207500006E6400006572000072
:10137400204300007265000061740000697600007B
:1013840065200000436F00006D6D00006F6E00006B
:10139400732000006E7500006C6C0000206C00006F
:1013A40069630000656E0000736500002E00000094
:1013B400466F0000756E000064200000626F00003C
:1013C4006F7400006C6F00006164000065720000BF
:1013D4002076000000200000756E00006B6E000097
:1013E4006F7700006E20000028700000726F00000C
:1013F40062610000626C0000792000007632000017
:1014040029000000576900006C6C0000206900008E
:101414006E730000746100006C6C000020620000B8
:101424006F6F0000746C00006F6100006465000061
:1014340072200000760000005479000070650000FE
:101444002027000059650000732700002074000065
:101454006F200000707200006F670000726100006E
:101464006D20000074680000652000006E650000B7
:1014740077200000626F00006F7400006C6F000042
:1014840061640000657200002E00000044690000E1
:10149400736300006F6E00006E65000063740000EB
:1014A400207000006F770000657200002069000062
:1014B40066200000756E0000737500007265000000
:1014C400202800006E6F0000206800006172000098
:1014D4006D200000646F00006E650000292E00007E
:1014E4000030000031320000333400003536000093
:1014F40037380000394100004243000044450000F1
:081504004630000078000000F1
:020000040000FA
:10150C00C400FA00E9000700C222A900B0000700DD
:10151C0090C5B300960007000004E00026003200DE
:10152C0050C4B300920007000004E0002200320017
:10153C0030C5B3008E0007000004E0001E0032002E
:10154C00A08C28000F010700A08C28000D010700BB
:10155C00C222A800B08C2800F800070000402A0026
:10156C0031010700408D2800F400070000802A009C
:10157C00D4010700808D280002010700B08C2800E0
:10158C00EE00070000802A0027010700408D28008C
:10159C00EA00070000802A00CA010700808D28009D
:1015AC00F8000700E08D2800E40007000000EB00C5
:1015BC00000F780028003700B08E2800F1000700DB
:1015CC00A08C2800EF000700D0FF37001E00780029
:1015DC00004078000043B0003401070000C2B300A3
:1015EC00320107000000EB00100798000F003700D5
:1015FC009E007800000C20000088B9008000780064
:10160C001E00900000804000A12C2800E1407800D2
:10161C00640147001E009000000041000148780062
:10162C001E0090000000E800100798009E0090003B
:10163C00F00B2000808F5000EDFF34001E0078006E
:10164C000015B0004700DD00800078006400470002
:10165C00A00107001E0FE8001E007800E70F5000E5
:10166C00DAFF340020902800C60007007090280094
:10167C00B20007000000EB0092010700808D2800EB
:10168C00C000070090912800AC0007000000EB00A0
:10169C001007980008003700E40047001E00900077
:1016AC000080400080C0EB00014878001E009000D4
:1016BC000000E800100798009E009000F00B20003E
:1016CC00808F5000F4FF340040C0B30040479800B6
:1016DC000040EB005047980080CAB3006047980068
:1016EC000040EB00704798000040EB00004F980062
:1016FC000040EB00104F9800640047008000EB00A6
:10170C0074010700209028009E000700A08C280080
:10171C009C000700B09228009A0007004093280014
:10172C00980007000000000011118000001020003C
:10173C00008060000000E000FBFF320081BF2A0047
:10174C0001400100C222A800A0CFB300E3000700B3
:10175C00A0CFB300E1000700C222A900A0CFB300C4
:10176C00DE000700A0CFB300DC000700F5FF370058
:10177C000400FA002047980015010700004F78007C
:10178C001E407800C900070000C6B3009E407800D8
:10179C0080CF500006003600A0C7B3009E407800F2
:1017AC0080CF500002003E0000CEB3001E4F400020
:1017BC002E4090009E4F500002003A0010C0B30023
:1017CC00010037000040EB000080FA00000006002A
:1017DC000000FA00A08C28006A000700A0972800DF
:1017EC0068000700A08C280066000700C09A28003B
:1017FC0064000700A09D280050000700A0BF2A002D
:10180C004A010700E10F400003003A00D09E280077
:10181C004A0007000B003700A0BF2A004301070055
:10182C004800DE00F4000700E0C2B3009F00070090
:10183C00A0BF2A003D010700F10F2000010060004D
:10184C00ED000700A08C28004E00070040A02800E7
:10185C003A000700308C2800104078000080FB0014
:10186C00E5000700E0C2B30090000700208C2800C0
:10187C00104078000080FB00DF000700A08C2800DF
:10188C0040000700A08C28003E000700E0A12800C3
:10189C003C00070080A428003A000700A08C280018
:1018AC00380007000080FA00000006000000FA0073
:1018BC004507A9000080EB00601988004227A900A9
:1018CC002135800000FE2F00008060005000B30026
:1018DC00203588002136800000FE2F00008060003B
:1018EC003000B30020368800C922A800C902A80025
:1018FC00C8E2A800C8C2A800C942A800C222A90018
:10190C00C022A900CB62A900C962A900C002A9002B
:10191C00C202A90020022000401188002022EF0002
:10192C002062A8002222EF0021E2A8002342A80096
:10193C008560A9000080FA00000006000400FA008F
:10194C0010079800020037001E407800570007006F
:10195C001E009000104F78001E80FB000000EA0073
:10196C004F00DE00004078009E0090008100E800EF
:10197C00110798000004E000F3FF3A000080FA0021
:10198C00000006000400FA0010079800020037005F
:10199C001E407800450007001E009000104F780094
:1019AC001E80FB000000EA004F00DE0000407800C3
:1019BC009E0090008100E800110798000004E000F0
:1019CC00F3FF3A00D0C0B30038000700A0C0B3004A
:1019DC00360007000080FA00000006000400FA0040
:1019EC001007980030A82800D4FF07001E009000B4
:1019FC004400DE006F0F600030A728001E0040007E
:101A0C0010407800290007001E0090006F0F600046
:101A1C0030A728001E00400010407800230007006B
:101A2C000080FA00000006000400FA00100798007D
:101A3C0030A82800C1FF07001E0090004C00DE00FB
:101A4C00000F780030A728001E00400010407800DE
:101A5C00160007001E0090004800DE006F0F6000AB
:101A6C0030A728001E004000104078000F0007002F
:101A7C001E0090004400DE006F0F600030A72800AD
:101A8C001E00400010407800080007001E00900067
:101A9C006F0F600030A728001E0040001040780037
:101AAC00020007000080FA00000006000200FA00A5
:101ABC00004F780000000000111180000020200071
:101ACC00008060000000E000FBFF3A001E00FB00FD
:101ADC00201188000080FA00000006000600FA00C1
:101AEC00404798000040EB00204798000E0037005C
:101AFC000000EB00000F780005003700A0CFB3000A
:101B0C000F0007001E0078000000E800000F7800AE
:101B1C001E007800E30F5000F8FF36002E409000B6
:101B2C000040E80020479800AE4090004E409000E6
:101B3C0080CF5000EEFF39000080FA000000060054
:101B4C000400FA00204798000040EB00004F78009A
:101B5C00130037000000000000000000000000002F
:101B6C000000000000000000000000000000000069
:101B7C000000000000000000000000000000000059
:101B8C000000000000000000000000000000000049
:101B9C00000000001E4078000040E800004F780074
:101BAC009E4078002E40900080CF5000E9FF390015
:101BBC000080FA00000006000000FA0010118000FE
:101BCC0000407800614060000080FA0000000600D0
:101BDC000000FA000000000010118000610060009D
:101BEC000000E000FCFF3200301180000040780063
:101BFC000080FA00000006000800FA003007980088
:101C0C000040EB003047980000712200000F780074
:101C1C000040EB002047980021003700BE009000E8
:101C2C001E00780000017800110009008280D800A5
:101C3C00200798003E4090000004E00003003A00AA
:101C4C002E0090000000E0000D0032002E009000ED
:101C5C00004078000043B00094FF0700AE009000F5
:101C6C001E0078000088B90000007800BE009000CB
:101C7C00008050003007980010C0B3003047980027
:101C8C009E007800D0CC2C000008B8004308DE0081
:101C9C00000F78002E4090000040E800204798008C
:101CAC002E409000E34F5000DCFF36003E009000C9
:101CBC00004078000043B0007CFF07000080FA0071
:101CCC00000006000008BB00200424000C000700E4
:101CDC0000000600821F780002042000B0C8BB0080
:101CEC00B058BB00B058BB000201E900FBFF3A0042
:101CFC0010002400020007004F01780000000600CD
:101D0C00003B880050052000303B8800A00A2000D2
:101D1C00303B880061E7A8000000000000000000D4
:101D2C0061E7AF00FEFF3700000006001000BA00AC
:041D3C00000006009D
:020000040000FA
:081D40000040DA000000FE0083
:020000040000FA
:020000040001F9
:0457F800DFF90000D5
:020000040000FA
:020000040001F9
:0457FC007F3F0000EB
:00000001FF
