:020000040000FA
:080000000002040000000000F2
:020000040000FA
:040008009A04000056
:020000040000FA
:04000C009A04000052
:020000040000FA
:040010009A0400004E
:020000040000FA
:040014009A0400004A
:020000040000FA
:040018009A04000046
:020000040000FA
:04001C009A04000042
:020000040000FA
:040020009A0400003E
:020000040000FA
:040024009A0400003A
:020000040000FA
:040028009A04000036
:020000040000FA
:04002C009A04000032
:020000040000FA
:040030009A0400002E
:020000040000FA
:040034009A0400002A
:020000040000FA
:040038009A04000026
:020000040000FA
:04003C009A04000022
:020000040000FA
:040040009A0400001E
:020000040000FA
:040044009A0400001A
:020000040000FA
:040048009A04000016
:020000040000FA
:04004C009A04000012
:020000040000FA
:040050009A0400000E
:020000040000FA
:040054006004000044
:020000040000FA
:040058007E04000022
:020000040000FA
:04005C009A04000002
:020000040000FA
:040060009A040000FE
:020000040000FA
:040064009A040000FA
:020000040000FA
:040068009A040000F6
:020000040000FA
:04006C009A040000F2
:020000040000FA
:040070009A040000EE
:020000040000FA
:040074009A040000EA
:020000040000FA
:040078009A040000E6
:020000040000FA
:04007C009A040000E2
:020000040000FA
:040080009A040000DE
:020000040000FA
:040084009A040000DA
:020000040000FA
:040088009A040000D6
:020000040000FA
:04008C009A040000D2
:020000040000FA
:040090009A040000CE
:020000040000FA
:040094009A040000CA
:020000040000FA
:040098009A040000C6
:020000040000FA
:04009C009A040000C2
:020000040000FA
:0400A0009A040000BE
:020000040000FA
:0400A4009A040000BA
:020000040000FA
:0400A8009A040000B6
:020000040000FA
:0400AC009A040000B2
:020000040000FA
:0400B0009A040000AE
:020000040000FA
:0400B4009A040000AA
:020000040000FA
:0400B8009A040000A6
:020000040000FA
:0400BC009A040000A2
:020000040000FA
:0400C0009A0400009E
:020000040000FA
:0400C4009A0400009A
:020000040000FA
:0400C8009A04000096
:020000040000FA
:0400CC009A04000092
:020000040000FA
:0400D0009A0400008E
:020000040000FA
:0400D4009A0400008A
:020000040000FA
:0400D8009A04000086
:020000040000FA
:0400DC009A04000082
:020000040000FA
:0400E0009A0400007E
:020000040000FA
:0400E4009A0400007A
:020000040000FA
:0400E8009A04000076
:020000040000FA
:0400EC009A04000072
:020000040000FA
:0400F0009A0400006E
:020000040000FA
:0400F4009A0400006A
:020000040000FA
:0400F8009A04000066
:020000040000FA
:0400FC009A04000062
:020000040000FA
:040100009A0400005D
:020000040000FA
:040104009A04000059
:020000040000FA
:040108009A04000055
:020000040000FA
:04010C009A04000051
:020000040000FA
:040110009A0400004D
:020000040000FA
:040114009A04000049
:020000040000FA
:040118009A04000045
:020000040000FA
:04011C009A04000041
:020000040000FA
:040120009A0400003D
:020000040000FA
:040124009A04000039
:020000040000FA
:040128009A04000035
:020000040000FA
:04012C009A04000031
:020000040000FA
:040130009A0400002D
:020000040000FA
:040134009A04000029
:020000040000FA
:040138009A04000025
:020000040000FA
:04013C009A04000021
:020000040000FA
:040140009A0400001D
:020000040000FA
:040144009A04000019
:020000040000FA
:040148009A04000015
:020000040000FA
:040208009A04000054
:020000040000FA
:04020C009A04000050
:020000040000FA
:040210009A0400004C
:020000040000FA
:040214009A04000048
:020000040000FA
:040218009A04000044
:020000040000FA
:04021C009A04000040
:020000040000FA
:040220009A0400003C
:020000040000FA
:040224009A04000038
:020000040000FA
:040228009A04000034
:020000040000FA
:04022C009A04000030
:020000040000FA
:040230009A0400002C
:020000040000FA
:040234009A04000028
:020000040000FA
:040238009A04000024
:020000040000FA
:04023C009A04000020
:020000040000FA
:040240009A0400001C
:020000040000FA
:040244009A04000018
:020000040000FA
:040248009A04000014
:020000040000FA
:04024C009A04000010
:020000040000FA
:040250009A0400000C
:020000040000FA
:040254009A04000008
:020000040000FA
:040258009A04000004
:020000040000FA
:04025C009A04000000
:020000040000FA
:040260009A040000FC
:020000040000FA
:040264009A040000F8
:020000040000FA
:040268009A040000F4
:020000040000FA
:04026C009A040000F0
:020000040000FA
:040270009A040000EC
:020000040000FA
:040274009A040000E8
:020000040000FA
:040278009A040000E4
:020000040000FA
:04027C009A040000E0
:020000040000FA
:040280009A040000DC
:020000040000FA
:040284009A040000D8
:020000040000FA
:040288009A040000D4
:020000040000FA
:04028C009A040000D0
:020000040000FA
:040290009A040000CC
:020000040000FA
:040294009A040000C8
:020000040000FA
:040298009A040000C4
:020000040000FA
:04029C009A040000C0
:020000040000FA
:0402A0009A040000BC
:020000040000FA
:0402A4009A040000B8
:020000040000FA
:0402A8009A040000B4
:020000040000FA
:0402AC009A040000B0
:020000040000FA
:0402B0009A040000AC
:020000040000FA
:0402B4009A040000A8
:020000040000FA
:0402B8009A040000A4
:020000040000FA
:0402BC009A040000A0
:020000040000FA
:0402C0009A0400009C
:020000040000FA
:0402C4009A04000098
:020000040000FA
:0402C8009A04000094
:020000040000FA
:0402CC009A04000090
:020000040000FA
:0402D0009A0400008C
:020000040000FA
:0402D4009A04000088
:020000040000FA
:0402D8009A04000084
:020000040000FA
:0402DC009A04000080
:020000040000FA
:0402E0009A0400007C
:020000040000FA
:0402E4009A04000078
:020000040000FA
:0402E8009A04000074
:020000040000FA
:0402EC009A04000070
:020000040000FA
:0402F0009A0400006C
:020000040000FA
:0402F4009A04000068
:020000040000FA
:0402F8009A04000064
:020000040000FA
:0402FC009A04000060
:020000040000FA
:040300009A0400005B
:020000040000FA
:040304009A04000057
:020000040000FA
:040308009A04000053
:020000040000FA
:04030C009A0400004F
:020000040000FA
:040310009A0400004B
:020000040000FA
:040314009A04000047
:020000040000FA
:040318009A04000043
:020000040000FA
:04031C009A0400003F
:020000040000FA
:040320009A0400003B
:020000040000FA
:040324009A04000037
:020000040000FA
:040328009A04000033
:020000040000FA
:04032C009A0400002F
:020000040000FA
:040330009A0400002B
:020000040000FA
:040334009A04000027
:020000040000FA
:040338009A04000023
:020000040000FA
:04033C009A0400001F
:020000040000FA
:040340009A0400001B
:020000040000FA
:040344009A04000017
:020000040000FA
:040348009A04000013
:020000040000FA
:100400006FE72100AE7E22000E0188000000000090
:10041000000020000000E000020032000001200087
:100420002002880014000700440107000000E000DB
:1004300003003A00A07A26000100200002003700E5
:100440000000200001002000810F70000100320038
:1004500014000700000020000000E000020032004D
:10046000000002000000000008760200000000000A
:100470000040DA000000FE004440A900C03920001E
:100480000000E0000300320000002000A00188000E
:100490004440A800000006008A1F78008B1F7800E7
:1004A0000000060091018800800478000000EB0045
:1004B0001A003700E284440032A0B4009905BA0063
:1004C000E284440032A0B4009906BA00E2844400F9
:1004D00032A0B4000006EB00476FDE00FD07B2005B
:1004E000636CE10003003A00EBFF07000000EB0043
:1004F0000A003700606CE10004003A00005DEB0088
:100500008B05E900FDFF3E00040037006168E10053
:10051000010032000086EB000B00070019C7BA008B
:100520001905BA000E04E00003003A000A00E000DA
:10053000E0FF3A0000000600FE07B2009E018800BE
:100540008A047800F5FF3700395DBA008B05E900B1
:100550000C003200295DBA008B05E900080032006A
:100560000C00E00003003A00E284440032A0B40032
:10057000F5FF370019DDBA008B05E900FAFF3A00F4
:100580008904E800E184440032A0B40000000600C1
:10059000000000000000000000000000000000005B
:1005A000000000000000000000000000000000004B
:1005B000000000000000000000000000000000003B
:1005C000000000000000000000000000000000002B
:1008C000809FBE00821F780032118000204080008F
:1008D00001408000827078000408EC00204088000D
:1008E0000208E30001003A009560A9008560A900B4
:1008F0004F0178004F00BE0000400600809FBE0000
:100900000808EC00404088000A08E30002003A00B2
:100910009580A900040037003140800061407800D4
:100920000080FB00201188008580A9004F00BE00D8
:10093000004006000040DA000000FE000000050054
:1009400003F0A200889FBE008A9FBE008C1F780023
:100950004A010700510133006450E1004F003200AA
:100960006420E1005200320003826C0007003B006B
:100970000905D0000306D000820F54000C065D006C
:100980000200390002003200890178000306780075
:100990008582550004003D000003FD008103FD0039
:1009A0008502EA008B854200840F720002003B0042
:1009B00060001000E08018006011B8000005EB0036
:1009C0007A28E1000A00390006007800C75DDD00E2
:1009D000F707B200878075002D0037008281710013
:1009E0000A017800610560008180D1000080D30099
:1009F0008502E900F9FF3B000604400087844800B7
:100A000002003B0060041400E0841C000988A3007D
:100A1000070032008A8171008281710061016400E7
:100A20008904D1000884D3008B05E8001700370043
:100A30000978A30013003A000B00E0001300340013
:100A40008B05E9000804440089844C000A447400C2
:100A50000978A3000D003A000B00E0000700340005
:100A60008B05E9000804440089844C0001003A0029
:100A70000B0020000978A300F7FF32000001EB0013
:100A800002003700828171000A017800C00007006F
:100A90000CF0A70001F0A000090137006420E1007C
:100AA00002003A00838F6C00090133000801BE0088
:100AB0000200BE0002013700889FBE008A9FBE0070
:100AC0008C1F7800ED000700F400330003866C00F3
:100AD0006450E1002E0032006420E1003300320057
:100AE0006150E1002F0032006120E100310032004E
:100AF00085855500EB07B0000900200008042000A0
:100B0000050037000804440089844C000A003100C5
:100B10000603430087834B000001530081815B0083
:100B2000F8FF33000203BE000800A00008044400E0
:100B300089844C00F6FF3900C639DD00830173005B
:100B400001003200130020008904D1000884D30082
:100B50000998A300050032000800A7000300A000C8
:100B60008904D1000884D3008B05E8008904D100F2
:100B70000884D3000001EB000281D200840007004A
:100B800001F0A1000CF0A70001F0A000CC0037009C
:100B90006420E100CE0032000801BE000200BE0069
:100BA000F7FF37006120E100C90032006000B800A3
:100BB000F3FF37000000200001F82700F0FF3700A6
:100BC00014002000B0013700F4FF2F00AE01370001
:100BD0000003BE00940007006011B8000470A70075
:100BE00007F0A10007F8A30017003A006509B1005B
:100BF0000D0032000D003500860220000628E100BD
:100C000003003500030028006000B8000200050062
:100C100000004000818048000201490083814900B2
:100C20008502E900FAFF3A0000000600F88F420052
:100C3000050034008100D1000080D3008502E80067
:100C4000FCFF3A00000006006011B8008000EB00D5
:100C5000000005000001BE00730007000470A7003B
:100C600003F0A10003F8A30013003A006509B100E6
:100C700010003200090035006928E100020035004B
:100C800001002800000005000000400081804800AD
:100C90008502E900FCFF3A0000000600F88F4200E0
:100CA000050035008100D1000080D3008502E800F6
:100CB000FCFF3A00000006008000EB000000050089
:100CC0004F89DE00820178008A013700889FBE00CC
:100CD0008A9FBE00008270000402710004827100CD
:100CE000260032000004BE000200BE006011B80001
:100CF0006B092000950220000182CF000A00390014
:100D00000541B1000082CF00070039000541B10064
:100D10000982CF00040039000541B1000882CF00EC
:100D2000010039000541B1000542520012003200B5
:100D30000A003B0082817100610164008100D100E2
:100D40000080D3008984D3000884D3008B05E80099
:100D50000442E800F7FF3A000700370008044400A7
:100D600089844C0000004800818048008B05E90020
:100D70000442E900F9FF3A00050007004F05BE00F4
:100D80004F04BE00000006006011B800CFFF37001E
:100D900081002000618055000B003D000B00200009
:100DA00061FE2F000100E1001D003400828171000E
:100DB000610164008904D1000884D3000000E800C8
:100DC000FAFF3A0071002000610064000300700027
:100DD000020060000900320061044400E0844C001D
:100DE0000988A500050032008B05E8006808E100CD
:100DF00002003A008904D1000884D300F20F2000D9
:100E00000258E10005003D00C75DDD00F907B200B2
:100E10008980750008007800000006000BF82700A4
:100E20008B00780000000500C70ADE00F107B20061
:100E3000F50FB20008003200E1CF4200020032009C
:100E40000170A00024000500810F70000100320035
:100E50000408050044000500810F700002003A00FC
:100E6000140005008502E9000000400081C0480030
:100E7000FCFF3B000170A000240005000004BE0040
:100E8000E9FF07000003BE000405BE000200BE002B
:100E9000E5FF0700844F7500000006000200BE0059
:100EA0006450E100050036006420E10002003600D5
:100EB0000968A30001003A000800BE000160A0001C
:100EC0004F0678004F05BE004F04BE00000006002C
:100ED000F0FF2F00F1FF2700F9FF3700889FBE00C9
:100EE0008A9FBE008C1F7800E4FF0700EBFF3300F1
:100EF00003866C006450E100240032006420E100AD
:100F0000270032006150E100220032006120E10040
:100F1000210032008B854200EB07B1000134B8009C
:100F2000003AB8000804420089844A00013AB80037
:100F30000030B8008880400009014A0004003300F6
:100F40000000400081804800020149008B05E90053
:100F5000C909DD0083017000010032001300200088
:100F6000C814DE004814DD004709DE001200B2009C
:100F7000C808DE000884700085FF070001F0A100AA
:100F80000CF0A70001F0A000CDFF37006120E100C8
:100F9000CFFF32000801BE000200BE00F7FF37009D
:100FA0006150E100FCFF3A00C9FF37006022B80041
:100FB000060220000000D0008180D2000482D2000E
:100FC0008582D2000000A0000202520083825A00F3
:100FD000030031000202420083824A000000A100A7
:100FE0000603E900F3FF3A0000000600EFFF0700E8
:100FF0000400BE0000000600889FBE008A9FBE005D
:1010000030044200B0844A0030054B0090854B000C
:101010006000B1000898BE000A90BE000440E100E4
:1010200005C8E10006D0E10007D8E1000200310068
:10103000680040001008E8004F05BE004F04BE00E5
:1010400000000600889FBE008A9FBE003004BE00DC
:101050002005BE000418540005985C0006185D00C9
:1010600007985D00110020000440E10005C8E10080
:1010700006D0E10007D8E100010039008000EB0054
:10108000108810004F05BE004F04BE00000006008F
:101090001200FA00889FBE008A9FBE008C9FBE008F
:1010A000E0B79F00F1B79F0082BF9F0093BF9F00F2
:1010B0000605BE000404BE000000EB00D0B79F0090
:1010C000C0B79F00B0B79F00A0B79F0090B79F0028
:1010D0000006EB005FB19700CFB09700820141009E
:1010E0003FB097000200E00004003D003700070019
:1010F0007E805700C0FF0700030037003300070061
:101100007E805700CFFF0700DFB697000D00E0009C
:101110000C0035006FB29700FFB297000FBB97002D
:101120009FBB970010002000010020006011B80054
:1011300000027200818272000203730083837300D5
:101140001B0007000C06E80001042000810F560078
:10115000E0FF3A000D00E00004003D000802BE0080
:101160000A03BE007E805700A3FF07005FA8970018
:101170000000E00005003A001FB29700AFB29700F0
:101180003FB39700CFB39700090007006FB09700F7
:10119000FFB097000FB997009FB997004F06BE00A8
:1011A0004F05BE004F04BE000080FA00000006009C
:1011B0000100070000000600A4B79F00B5B79F001C
:1011C000C6B79F00D7B79F00000006004F09DE009A
:1011D00082817100B3B79F004F01DE008180400023
:1011E00082807000A1B79F008FB097004F09DE008A
:1011F000000040000200700090B79F007FA8970099
:101200004F01DE00818040008280700081B79F0026
:101210000D0007004F3ADE0000004000040070009F
:10122000F0AF9F00080007000402420085824A00D8
:1012300006034B0087834B00DFFF07000802BE0058
:101240000A03BE00000006002FB29700BFB297004D
:101250004FB39700DFB3970000000600881F7800A7
:1012600018002000881F780089FF07008F87E90099
:101270004F04780000000600801FEB0084FF070089
:101280008F87E90000000600889FBE008A9FBE008D
:10129000841F7800F9FE07004F007800110033002A
:1012A000F0FF2F00838F6C0006003B0004056500F3
:1012B0000A00A7000800370009F0A600100020006F
:1012C00008003700820F5400838F5C000300390050
:1012D0001000200001003E000000200009F0A700DF
:1012E0000000EA004F05BE004F04BE000000E00011
:1012F00000000600881F7800030478000300E00067
:1013000007003D0060001000E08018006001190037
:10131000E081190002003B0001F02D0003003700BE
:101320006AFE070008F0A70001F0A0004F04780053
:10133000000006008001780002003700B1597800F3
:101340000201E9000200E000FCFF3A000000060094
:101350008001780002003700815978000201E9001D
:0C1360000200E000FCFF3A000000060064
:020000040000FA
:10136C000052000045540000555200004E00000091
:10137C00525500004E0000004C4900005354000030
:10138C000045000058490000540000004E45000084
:10139C00570000004C450000540000004946000076
:1013AC0000540000484500004E000000454C000071
:1013BC0053450000004700004F5400004F00000050
:1013CC00474F0000535500004200000052450000FA
:1013DC004D00000050520000494E00005400000027
:1013EC00494E00005055000054000000464F0000CC
:1013FC0052000000544F0000004E00004558000001
:10140C00540000005245000041440000004400001C
:10141C0041540000410000005354000041520000B0
:10142C00545200000053000054410000525400007C
:10143C0000530000544F00005052000000530000B5
:10144C00544F000050000000534500004E44000073
:10145C00005200004543000045490000564500007D
:10146C00004300004C4B00000044000041540000BD
:10147C000042000049540000524500004144000065
:10148C00004100004443000000410000555800009A
:10149C00504900004E000000505300005500000061
:1014AC00505500004C4C000055500000004400000A
:1014BC00454C000041590000004100005558000007
:1014CC000046000052450000510000004455000049
:1014DC0054590000004D000041430000524F0000E1
:1014EC00004500004E44000000000000D0890000C0
:1014FC00D4890000D7890000DC890000E189000054
:10150C00E6890000B7890000EC890000F089000032
:10151C00F6890000FC890000008A0000038A0000A4
:10152C00088A00000D8A0000128A0000198A000047
:10153C001F8A0000258A00002A8A00002F8A0000DA
:10154C00378A00003B8A00003F8A0000478A00006F
:10155C004B8A0000528A0000568A00005D8A000007
:10156C00638A0000678A00006C8A0000718A0000A0
:10157C00778A000000000000002E0000003A0000F6
:10158C0020000000005E0000BCE20000613F000093
:10159C00DD830000C29C00007E200000A3FD000043
:1015AC001F4100009DC30000217F0000FCA2000031
:1015BC00401E00005F010000E3BD00003E60000023
:1015CC0082DC0000237D00009FC10000421C000053
:1015DC00FEA00000E1BF00005D03000080DE000003
:1015EC003C620000BEE00000025C0000DF810000F5
:1015FC00633D00007C220000C09E00001D430000E3
:10160C00A1FF000046180000FAA400002779000092
:10161C009BC5000084DA000038660000E5BB0000C2
:10162C0059070000DB85000067390000BAE40000B0
:10163C000658000019470000A5FB000078260000A2
:10164C00C49A0000653B0000D9870000045A0000D2
:10165C00B8E60000A7F900001B450000C698000082
:10166C007A240000F8A60000441A000099C7000074
:10167C00257B00003A64000086D800005B05000062
:10168C00E7B900008CD20000306E0000EDB3000012
:10169C00510F00004E100000F2AC00002F71000042
:1016AC0093CD0000114F0000ADF30000702E000030
:1016BC00CC920000D38D00006F310000B2EC000022
:1016CC000E500000AFF10000134D0000CE90000052
:1016DC00722C00006D330000D18F00000C52000002
:1016EC00B0EE0000326C00008ED00000530D0000F4
:1016FC00EFB10000F0AE00004C12000091CF0000E2
:10170C002D730000CA94000076280000ABF5000091
:10171C001749000008560000B4EA000069370000C1
:10172C00D58B000057090000EBB5000036680000AF
:10173C008AD4000095CB000029770000F4AA0000A1
:10174C0048160000E9B70000550B000088D60000D1
:10175C00346A00002B75000097C900004A14000081
:10176C00F6A80000742A0000C8960000154B000073
:10177C00A9F70000B6E800000A540000D789000061
:10178C006B35000049090000004F00000900000003
:10179C0048090000004C0000090000003E00000059
:1017AC00001B00005B000000440000004300000030
:1017BC000D0A00002800000078000000293E0000FF
:1017CC00002E000020000000427500007320000075
:1017DC005069000072610000746500002076000002
:1017EC0033000000436F00006D6D0000756E00004B
:1017FC00697400007920000046690000726D0000D9
:10180C00776100007265000020760000372E000022
:10181C00312000002D200000676F00006F2E0000AB
:10182C00676C00002F670000437A0000516E0000C7
:10183C005720000000290000002E0000203C000072
:10184C00000000000000000001000000000000008B
:10185C000200000000000000040000000000000076
:10186C000800000000000000100000000000000054
:10187C0020000000000000004000000000000000FC
:10188C00800000000000000080000000000000004C
:10189C000001000000000000000200000000000039
:1018AC000004000000000000000800000000000020
:1018BC0000100000000000000020000000000000EC
:1018CC00004000000000000000800000000000004C
:1018DC0000000000010000000000000002000000F9
:1018EC0000000000040000000000000008000000E0
:1018FC000000000010000000000000001434000084
:10190C00040D00008206000040030000A00100004E
:10191C00CF0000006700000044000000220000001F
:10192C007F00000000000000000000002C010000FF
:10193C00000000005802000000000000B00400008D
:10194C00000000006009000000000000C012000050
:10195C00000000008025000000000000403800005E
:10196C0000000000004B0000000000008070000030
:10197C00000000000096000000000000C0DA00002B
:10198C000000000000E100000000000000C20000A8
:10199C000100000000F400000100000000E800005D
:1019AC000300000030300000302C0000003000003C
:1019BC0030000000080800000808000008000000C3
:1019CC0000300000313200003334000035360000A6
:1019DC003738000039410000424300004445000004
:1019EC0046000000314100004C5300000142000051
:1019FC0050760000330000002100000000100000B1
:101A0C0000230000000F00004240000040050000D1
:101A1C00410200000000000000000000006900000E
:101A2C00D05D00006DDB00005D6B0000CB5D000045
:101A3C0069D000005D00000000000000181C0000D0
:101A4C001D0C0000161A00000B0F00001E170000E2
:101A5C001B000000145000000108000001030000EE
:101A6C000000000000200000290000009D2500005F
:101A7C000D000000003500003F6200006100000016
:101A8C002900000000000000000000000000000021
:081A9C00000000000000000042
:020000040000FA
:101AA4002208EC000080FB00E1CA2100E14078003C
:101AB4008100FB0080072000808F5000100032005E
:101AC40074005000808F5000090032000080E9004B
:101AD400808F5000080032000040EB0072072000A5
:101AE400828F500008003A003000200005003700C3
:101AF4001000200003003700200020000100370000
:101B04000000EB000040E8000000060042168000E0
:101B140080006100B0BC28000100320080BC2800B5
:101B24007027070000000600521680008000610044
:101B340010BD280001003200E0BC2800692707001E
:101B4400000006008000780000C3B3000100E0003C
:101B5400010032000040E800AE2607000000060045
:101B640070ED80002008E30003003A0070C0B30069
:101B7400A8260700070037000000E800F20F200045
:101B8400E1DA210082086000208E28000100200094
:101B94005833070000000600608D28000100200073
:101BA4005433070030E621001081FB0000032000BD
:101BB4000091B90061AC21000100410049270700F0
:101BC40040E6210010007800640060000300320049
:101BD400A07C2800010020004633070040BD2800F7
:101BE4004027070000000600889FBE008A9FBE00B1
:101BF400800578001141800000418000808F5000F2
:101C04000C003200E4CA21008041EB00F20F2000F6
:101C1400037278000000E90002006000808F500029
:101C2400FBFF3A00004188000041EB00E1CA2100BB
:101C3400827078000B00E9000080FB000241800004
:101C44000004EB00820F500012003200E1CA2100B0
:101C5400E14078000104E00007003A000300370087
:101C6400E44078000104E00005003A000000E800C8
:101C74000084FB0007003700F30F2000E4CA2100B2
:101C84000000E90003006000820F5000F4FF3A00F6
:101C94000004EB00C0FF07008B0F54000D0032005E
:101CA400E9CA2100FA0F200069407C005926070088
:101CB4000041800068F07C000000E8008A006000B9
:101CC400014188000804E8000A046400888F550074
:101CD400F5FF3A00004180000041EB00E1CA210019
:101CE4008270780070ED88004F05BE004F04BE007E
:101CF40000000600889FBE008A9FBE001841800035
:101D04000804E9000884FB0000418000880F5000AB
:101D1400170032000005EB00E9CA21000BDB2100AB
:101D240069407C000004E0000C003A000800E9006F
:101D34000080FB00694078000004E00007003200E6
:101D44000A05E8001B007800800F550003003600E8
:101D5400800DE80008007800A3FF07000804E900EC
:101D64000884FB0000418000880F5000ECFF3A001B
:101D740070C0B300272607004F05BE004F04BE0005
:101D840000000600889FBE008A9FBE0019418000A3
:101D94008904E9008984FB0000418000890F500018
:101DA400180032008000EB00EACA21000BDB21009E
:101DB4006AC07C000004E0000D003A000900E9005C
:101DC4000080FB006A4078000004E0000800320054
:101DD4008100E8001B04E900810F540004003A006C
:101DE400880D7800090078007FFF070088007800DC
:101DF4008904E9008984FB0000418000890F5000B8
:101E0400EBFF3A0080ED8000E10F50000300320048
:101E140070C0B300FF250700140037005EFF070001
:101E24000041800011418000810F50000900320000
:101E3400E4CA21008041EB00F20F20000372780015
:101E44000000E90002006000808F5000FBFF3A00B0
:101E5400004188000041EB00E1CA21008270780053
:101E640070ED880000DB21000008EB004F05BE0088
:101E74004F04BE000000060011C0B30030DB210097
:101E8400014878008000EB0081ED8800004180006B
:101E9400E2CA2100017178000000E8000080FB0024
:101EA4000041880070ED880060BD2800FA26070014
:101EB4000000060030E62100104078000004E00035
:101EC40004003A000017280001002000B532070082
:101ED400110037000080FB00010320000180B900DD
:101EE4002002B000E1A92100610078000000010097
:101EF4004045280001002000AA320700C002A900C2
:101F0400C202A900204628000100200079320700FF
:101F140060BD2800E02607000000060030E621002E
:101F24001004E00004003A0000172800010020001B
:101F34009C3207002B003700C002A900C202A8008F
:101F440021E3A8002000200034250700A000200081
:101F540005250700011B2000810F500016003600E4
:101F64009000200000250700712B2000810F5000F5
:101F740011003600A0552800010020005D32070042
:101F840060BD2800C426070030E621009080FB00D5
:101F9400000320000088B9000002B000E1A921007C
:101FA4006100780000000100605328000100200057
:101FB4007C3207000A003700C002A900C202A9004F
:101FC4002013280001002000763207002046280054
:101FD400010020004732070060BD2800AE2607003C
:101FE40021E3A90000000600889FBE008A9FBE006E
:101FF40071ED8000004180008004EB00808F500070
:102004000E003200EACA21000BC2B3000104E8004A
:102014006A407C0000F578000004E00001003A000A
:102024000B4078007B2507008904E8008880FB00CA
:1020340000418000810F5000F4FF3A000000E900E5
:102044000080FB000041880070BD280025260700A1
:1020540009007800E0250700A0BD2800212607001C
:102064004F05BE004F04BE000000060070ED800066
:102074002208E30003003A0070C0B300652507009E
:10208400150037002008E3000B003A000000E900C7
:102094000080FB00004188000041EB00E1CA210000
:1020A4008270780070ED8800608E280001002000A6
:1020B4001032070008003700A08D2800010020001E
:1020C4000C320700E0DA21001001E900F10F2000D2
:1020D40001086100C4FF07000000060070ED8000E5
:1020E4002208E30003003A0070C0B300492507004A
:1020F40001003700BCFF070000000600889FBE00F7
:1021040070ED80002208E30002003A0070C0B300C2
:1021140040250700E9DA2100184180001904140061
:102124000884FB0070BD2800EE2507000800780035
:10213400A9250700A0BD2800EA250700104180005A
:10214400800C78004F04BE0000000600889FBE008B
:1021540070ED80002008E30002003A0070C0B30074
:102164002C250700E9DA21000841800019045400F5
:102174000884FB0070BD2800DA25070008007800F9
:1021840095250700C0BD2800D62507000041800022
:10219400800C78004F04BE0000000600889FBE003B
:1021A4008A9FBE008C9FBE008E1F780080467800F8
:1021B4000A4180000A00E8000080FB002208E300D6
:1021C40044003200FFCF560042003600E0C7B3009F
:1021D40080CF56003F003E0078ED8000880F550008
:1021E4000C003A000D4078000A25070000418000E9
:1021F400E1CA21008D7078000000E8000080FB0037
:10220400004188000041EB008270780070ED880086
:102214003200370070BD2800B225070008045500BD
:10222400FB0F20000B0064006B250700C0BD2800D5
:10223400AC2507000A418000E0DA21001000E90023
:102244008B0560008A8F550014003200EBCA210010
:10225400E88D280009002000FC0F2000EEDA2100A0
:102264000A804500EB407D00114098006B407D00E2
:102274000004E00003003200E62407000800BE006A
:102284009C3107000A05E9000C0565001E00E90001
:102294000C0060008A0F5000F1FF3A000D407800F6
:1022A400DC240700E1DA210011007800E2CA2100F1
:1022B4000D7178000001E800F00F20008008610033
:1022C400014180008100E800008160000241880033
:1022D4000200370070C0B300CE2407004F07780017
:1022E4004F06BE004F05BE004F04BE0000000600AE
:1022F40020DB210041C0B30090CF10000400360061
:102304006C31070020DB21000048EB000D00370092
:1023140070ED80002208E300080032000000E900AC
:10232400F20F2000E1DA210082086000A08D28006D
:10233400010020006F3107000200370070C0B300B5
:10234400B424070000000600AE240700B1C5B300A2
:10235400814F500026003A00AA24070011C4B3009C
:10236400814F50001300320007003E00F0C05000BF
:10237400814F500013003200E3C04000814F5000F1
:102384001B003A001500370031C4B300814F5000E0
:1023940006003200090039008140E800814F5000F6
:1023A40013003A00D2FF070011003700ECFD0700CC
:1023B4000F0037004FFE07000D00370071FE0700C5
:1023C4000B0037008F240700E1C7B300814F500092
:1023D40007003A0049FF0700050037008924070079
:1023E400E1C7B300814F500001003A0057FF0700D6
:1023F40000000600889FBE00C07328000100200072
:1024040068310700E0AC27000100200065310700B7
:10241400E02B2800010020003631070030E62100BF
:102424009080FB00000320000088B9004002B00047
:10243400E1A9210061007800000001004074280037
:10244400010020002B31070000402000AFFD0700F1
:1024540000102000ADFD070000202000ABFD0700A8
:1024640000042000A9FD070000082000A7FD0700C4
:1024740060BD280088250700E08B280001002000AB
:102484001C31070021E3A800A0002000B6230700A8
:10249400DC24070088942800090020000800BE00FE
:1024A4001431070090C0B3005A24070090002000A4
:1024B400AD230700D32407000800BE000D31070038
:1024C40090C0B30053240700C0002000A6230700D7
:1024D400CC2407000800BE000631070090C0B300FA
:1024E4004C240700B00020009F230700C5240700E8
:1024F4000800BE00FF30070090C0B3004524070069
:1025040021E3A9000040200087FD070000102000FF
:1025140085FD07000020200083FD07000004200043
:1025240081FD0700000820007FFD070060BD280032
:10253400592507004F04BE000000060060882800EB
:1025440001002000EB300700C1BF2A000000EB00AF
:10255400A12307003A240700407F2800010020003F
:10256400E4300700E1BF2A000000EB009A230700D3
:102574003324070060BD28004725070000622800B7
:1025840001002000073107009AFF0700C202AB00D8
:1025940004003200A055280001002000D5300700B7
:1025A400030037002046280001002000D130070036
:1025B400C0C2B3001724070000C2B30015240700EB
:1025C400CB62AB0004003200403E28000100200032
:1025D400C830070003003700403228000100200003
:1025E400C4300700C0C2B3000A24070000C2B3000D
:1025F4000824070080E62100104078007040600045
:102604000400320020F6270001002000E530070016
:1026140003003700E00A280001002000E130070031
:1026240080E62100104078006840600004003A0011
:102634004018280001002000AE30070003003700D6
:102644008019280001002000AA300700C0C2B3008E
:10265400F023070000C2B300EE230700401D28004A
:1026640001002000A330070070E62100104078002C
:102674005224070060BD28000725070080E62100DA
:102684001040780063406000E14F500004003A00BD
:102694004031280001002000C23007000300370049
:1026A4004030280001002000BE30070030E6210041
:1026B4009080FB00000320000088B9006002B00095
:1026C400E1A92100610078000000010000622800F7
:1026D40001002000B330070000000600889FBE0000
:1026E4008A9FBE00134180000380FB00E1CA2100E1
:1026F40061407800F1CCB30081404000E8CF500045
:102704001A003E000000FB000003B1008300E80053
:102714008180FB00E2CA210062C1780004CDB300CD
:102724000442410011002000E94F520076003E00AF
:10273400F80F2000E7CA210006CDB3006A02B900F1
:102744000200FB00040040000003B1008100E80027
:10275400038140000801610067417900064241009D
:10276400E94F5200F5FF36006700370001C3B3009C
:10277400814F500060003A000300E8000080FB0035
:10278400E1CA21006141780020C6B300804F5100A6
:102794000B003A000380E8000080FB00E1CA21003E
:1027A4006141780004CDB300044241000000EB0015
:1027B40021002000E14F520005003600520037008E
:1027C40020C4B300804F510010003A00F1FF3700DD
:1027D400F70F2000E6CA210005CDB3000000400039
:1027E4000201FB00020040000003B1008100E80088
:1027F4000381400007016100664179000542410000
:10280400E14F5200F5FF36003F00370080C7B300A8
:10281400804F51000A00320080C5B300804F510040
:102824001E003A00090037004400DD000003B10037
:102834000201FB00020040008100E8000A003700AA
:102844000000EB0021002000020037000000EB0034
:1028540021002000F90F2000E7CA210008CDB300B1
:10286400FACBB300FBC9B300038240000902620043
:1028740067417A0088424100E9CF5200EAFF3600FE
:102884008A424100E5CF5200260036000B43410046
:10289400E54F5300230036001B00370004CDB3007E
:1028A400044241000000EB0011002000E94F5200F7
:1028B40015003E000200FB000003B100F80F2000E9
:1028C400E7CA210006CDB3006A02B9000200FB008A
:1028D400040040000003B1008100E80003814000CF
:1028E400080161006741790006424100E94F520046
:1028F400F5FF36000400370080E621001074A000C4
:102904000000EB00040037002282200092C0400047
:102914008180FB00114188004F05BE004F04BE00BA
:10292400000006000254A00082737A004400DD0017
:102934007005B1000201FB0002004000BEFF370039
:10294400881F7800114180000100E8000080FB002E
:10295400E2CA2100E241780010002000A2C3B300C3
:1029640082CF510009003A008180E800F80F20006E
:10297400088060001041880058FF07001141800062
:102984008100E90008816000124188004F0478004A
:1029940000000600881F7800114180000100E80053
:1029A4000080FB00E2CA2100E24178000000EB0055
:1029B400B2C3B30082CF510009003A008180E8001D
:1029C400F80F2000088060001041880043FF0700D2
:1029D400114180008100E9000881600012418800F3
:1029E4004F0478000000060010418000E1CA210075
:1029F4006141780001C2B300814F510009003A00DF
:102A0400F40F2000E3CA2100014178000000E8002F
:102A140004006000E340780082CF5000FBFF3200E6
:102A24001041880000000600889FBE008A1F7800BD
:102A3400004478002208EC000080FB00104188006C
:102A4400E9FF070025FF0700000578000804E000FF
:102A54000500320070E62100904078000A007800FA
:102A640048220700000578000A4078000A2307007E
:102A7400A88C2800090020000800BE009D2F070034
:102A84000A4078004D2307000800BE00992F070074
:102A94000A4078007A23070060BD2800FE2307005F
:102AA4004F0578004F04BE0000000600F28747007F
:102AB400889FBE008A9FBE008C9FBE008E1F780038
:102AC400E0B79F00D1B79F00C2B79F00F3B79F0044
:102AD4000ECDB300688E280009002000CA1A280011
:102AE4000B002000E0BD28007E2307006FB0970094
:102AF4000000E00003003D0020BE28007923070009
:102B0400020037004FE897002C23070040BE28003E
:102B1400742307008000EB0081BF9F008006EB0058
:102B2400B822070000467800ED4F50003E00320006
:102B340005003C00E84F50000A003200EA4F500004
:102B440026003A0038003700D1C2B300814F50004C
:102B54001500320081C7B300814F50001F003A00B6
:102B64001B0037000D00E000040032008D06E90070
:102B74000800BE005F2F0700E9FF37000FB9970078
:102B84000200E000050032000800BE00592F0700D3
:102B94000000EB0080BF9F00E1FF370070C0B3006E
:102BA4009C220700DEFF37000D00E00005003A001C
:102BB400D0C2B300972207001100200081BF9F00FC
:102BC400D7FF370070C0B30092220700D4FF37004C
:102BD4007FB197000200E00031003A000E4040004F
:102BE400E94F50000D003E00E38F5600040034000E
:102BF40070C0B300872207004D002000C8FF3700D3
:102C04000C407800832207008C4078007E805700B7
:102C140001F07E008D06E800C1FF370070C0B300EC
:102C24007C220700BEFF370060BD28009A230700FE
:102C34000D00E0001E0032000D00E9008000EB00F2
:102C4400080033007E8057008D0640006A09B900F1
:102C5400B000FB000103B100828040008D0F5000E2
:102C6400FAFF3A005FB19700810F510009003C0060
:102C74004FB09700810F5000060035000FB9970040
:102C84000200E000090032000100EA00E0B79F0002
:102C9400070037000A00BE00422F070091FF3700EB
:102CA4000080EB00E0B79F0001003700E1B79F0010
:102CB4006FB097004F0778004F06BE004F05BE0067
:102CC4004F04BE002F01B100000006000E00FA0000
:102CD400889FBE008A9FBE008C9FBE00104180006A
:102CE4000004E9000884FB001D002000880F500048
:102CF40026003200E9CA2100FB0F200069407C0055
:102D04000004E0001C003A000806E8000B06660018
:102D140069407E000004E000170032000D40780096
:102D2400A622070070BE2800EE22070069407E003C
:102D34000004E000070032000885E800352207009F
:102D44000B006500694078000A05E8000004E00013
:102D5400FAFF3A000D8046000C017800FA80570013
:102D6400823078008D06E800E78F560007003200B5
:102D740060BD2800482307000804E9000B04640030
:102D840010418000880F5000DCFF3A0060BD28002D
:102D940041230700807E280001002000012F070046
:102DA400130020000D017800830078000000EB0080
:102DB4003EFF07008000E800E18F50000A00360063
:102DC40000004000FA805700E10278000580FB0013
:102DD400E1CA2100E14078000000EB000104E000BA
:102DE40005003A001100370060BD28002A230700BF
:102DF400100020001C003700064180000000EB009A
:102E0400F30F2000E2CA2100060240000302620020
:102E140001717A000000E8008500400083806000B2
:102E2400E2C078000104E000F7FF3A0002418000AC
:102E34000201E900F10F2000010161001241880044
:102E44000281E800000041000100600000418800A8
:102E54000000E900810060000041EB00E0CA2100AD
:102E640002F078000000EB004F06BE004F05BE00E4
:102E74004F04BE000080FA0000000600889FBE00D8
:102E84008A9FBE002208EC000080FB0010418800ED
:102E9400D5FE070011FE07000000E0003C003A00E8
:102EA4000004EB0009032000EAA921000840E8001F
:102EB4004222070070BE28008A22070009C0B90018
:102EC4008002B0000A004000F32207000804E80072
:102ED400EB0F5400F5FF3A004035280001002000B4
:102EE400B02E070080E621001074A100130020001A
:102EF400B20020008300780003007800EBFE070096
:102F04000004E9000000E800E10F500004003E0066
:102F14006061280001002000A22E0700380037005D
:102F240039E621001980FB000A0320000A80B90059
:102F34002002B000EBA921006B0078000000010022
:102F4400EE200700884C78000880FB000A80B90056
:102F54007E0540006B007D00000001004045280014
:102F6400010020008F2E07000800E000040032005A
:102F7400C222A80080BD270001002000892E07007E
:102F8400E087280001002000862E07001C0037007F
:102F94000004E900EA0F540016003C0039E6210061
:102FA4001980FB000A0320000A80B9002002B00047
:102FB400EBA921006B00780000000100CF2007007E
:102FC400884C78000880FB000A80B9007E05400028
:102FD4006B007D00000001000800E00001003200E9
:102FE400C222A800E0872800010020006D2E0700FF
:102FF400030037004036280001002000692E070036
:103004002008ED000080FB00104188004F05BE0041
:103014004F04BE0000000600881F78002208EC0060
:103024000080FB00104188006FFE0700ABFD070025
:103034008000E900E98F500003003E0011E6210002
:103044008048E9000C00370080E621001074A100DC
:103054002098270001002000522E07008001EB0079
:10306400A200200011002000900020008FFE070025
:1030740011E621008048E9000004EB0010E621007D
:1030840091C0B30090CF100010003A0056FE070024
:1030940092FD0700000478000800E0000B003A00ED
:1030A40080E621001074A100403C280001002000AB
:1030B4003C2E07008001EB00F2FF27008000EB00AC
:1030C4002002200079FE0700000478000040280058
:1030D40001002000332E0700E04E280001002000EC
:1030E400302E0700DE22070010E6210091C0B30055
:1030F40090CF100002003A0008007800DD2207009B
:10310400DB20070008C2B3003E210700884F5000AF
:10311400FDFF3A004F047800000006002208EC008E
:103124000080FB00104188002FFE07006BFD0700A4
:103134008000E900E38F500003003E0021E62100F7
:103144008048E9000C00370080E621001074A100DB
:10315400A0F7270001002000122E07008001EB00D9
:103164004200200011002000100020004FFE070044
:1031740021E621008048E900203F280001002000CA
:10318400082E070000000600889FBE008A9FBE002C
:10319400A0BE2800D3210700E0C2B3001D21070010
:1031A40000E62100104078001A210700E1F28000B7
:1031B400F0442000808F500003003A00403A280079
:1031C40001002000CB2D070060BD2800322207003B
:1031D40080BF2800C3210700B0C5B3000D2107003C
:1031E400190020000004EB000A032000EBA92100D1
:1031F400020037000804E8008904E8000800E00041
:103204005C00320000C2B300022107000AC0B9000A
:103214008002B0000B004000B2210700EA8F540086
:10322400F4FF3600D0C5B300FA200700A0622800DE
:1032340001002000AF2D0700A1BF2A000000EB0011
:1032440065200700000478004840DE005B21070089
:10325400E0C2B300EF2007000840780057210700C0
:1032640060BD28000C220700E07E28000100200039
:10327400A02D0700C8E5210018007800F020070001
:10328400E0812800010020009A2D0700F0F2800060
:10329400EB200700A067280001002000952D0700FF
:1032A400F0442000980F100004003A0020942800F5
:1032B400010020008F2D0700030037000094280030
:1032C400010020008B2D0700F0F280002104230070
:1032D400810F50001000320004003E00F103B100E1
:1032E400810F500018003A00070037003104230012
:1032F400810F50000C003200E3804000810F500029
:1033040011003A000C0037008093280001002000CF
:10331400782D07000F003700A0932800010020003B
:10332400742D07000B003700C09328000100200013
:10333400702D070007003700E093280001002000EB
:103344006C2D070003003700208D280001002000A9
:10335400682D070010C22800CF210700800928002B
:10336400010020008F2D07004F05BE004F04BE0052
:10337400000006000AC0B9008002B0000B00400043
:10338400582107009BFF3700FE874700889FBE0037
:103394008A9FBE008C9FBE008E1F78002228EF00FB
:1033A4002028EF000000EB0070ED880031E62100DA
:1033B4008048780080E621001074A10040DB2100E1
:1033C400470009000058EB002428EF00A27C2800E5
:1033D40003002000D2AF9F00E3AF9F004A332800D0
:1033E4000B002000C071280001002000B0AF9F0036
:1033F400C1AF9F00FAAF9F008BB79F0030E621005A
:103404001081FB00000320000091B90061AC210091
:10341400010041003321070040E62100100078003C
:1034240064006000030032005FA89700EFA89700D3
:10343400302D070040BD28002A21070049DB210068
:10344400EDCA21008CE62100EC0037002041800009
:103454000000E0003B0032000000E9002041880049
:103464007801B900E94079000104E000110032005C
:103474000004EB0002418000817679007800B900F5
:103484000000440069407800622007000804E80056
:103494002008EC000080FB000041880020418000EF
:1034A4007801B90082004400E9C078000104E0001A
:1034B400F0FF3A002428EF00220037009C417800F6
:1034C40064C061002100320031E621001180FB005C
:1034D4000880B9007A0040006A007800000001000A
:1034E4000004E0001900320032E621001280FB00E3
:1034F4000880B9008002B0000A004000F9200700EB
:1035040040BD2800F72007001B41800000418000D7
:10351400808F55000D0032008B0F50000B003200DD
:10352400FE0F20006DC07D003A2007008E856500E7
:103534008B05E800034180008B8F510003003200AB
:10354400F8FF370008032000EAA92100DB1F070069
:103554000004E000D9FF3200C82107000004E000A5
:1035640002003200C8210700A4003700252007000C
:103574000081FB008001EB00F1072000810F510066
:10358400E08F59009C003E00026001009300370068
:103594008C00370083003700970037007D00370028
:1035A4008A00370081003700930037007700370026
:1035B40091003700870037008F0037008E003700F6
:1035C400840037007D0037008B0037007900370016
:1035D40089003700880037008700370086003700ED
:1035E40085003700840037008300370082003700ED
:1035F4008100370080003700680037007E00370004
:103604007D0037007C0037007B0037007A003700EC
:1036140079003700780037007700370076003700EC
:1036240075003700740037007300370072003700EC
:1036340071003700700037006F0037006E003700EC
:103644006D0037006C0037006B0037006A003700EC
:1036540069003700680037006700370066003700EC
:1036640065003700640037006300370062003700EC
:1036740061003700600037005F0037005E003700EC
:103684005D0037005C0037005B0037005A003700EC
:1036940059003700580037005700370056003700EC
:1036A40055003700540037005300370052003700EC
:1036B40051003700500037004F0037004E003700EC
:1036C4004D0037004C0037004B0037004A003700EC
:1036D40049003700480037004700370046003700EC
:1036E40045003700440037004300370042003700EC
:1036F40041003700400037003F0037003E003700EC
:103704003D0037003C0037003B0037003A003700EB
:1037140039003700380037003700370036003700EB
:1037240035003700340037003300370032003700EB
:1037340031003700300037002F0037002E003700EB
:103744002D0037002C0037002B0037002A003700EB
:1037540029003700280037002700370026003700EB
:1037640025003700240037002300370022003700EB
:1037740021003700200037001F0037001E003700EB
:103784001D0037001C0037000200370037FA07001D
:103794001A00370051FA070018003700EAFA070048
:1037A40016003700D2FA070014003700ECF80700BF
:1037B400120037004FF907001000370071F90700B5
:1037C4000E0037004DFA07000C0037005FFA0700BF
:1037D4000A003700A8F907000800370021DB2100A0
:1037E4001140E80080487800F44F500003003A008C
:1037F4005B0D07000100370068FA070032DB210087
:103804001204E00011FF320003418000C3B79F009F
:1038140011418000020078000048EB0080E621009E
:103824001074A10040E621001000780064006000DC
:1038340005003200BE080700E087280001002000D0
:10384400582C0700AA03370081BF9F000040EB00FB
:10385400E0E79F002C4E28000D002000C2602800E5
:103864000300200092B79F00A3B79F007FAD97008D
:103874008FB5970010418000E1CA210061417800B2
:103884000281FB008001EB00E1072000810F510061
:10389400E08F590075033E00026001007503370094
:1038A4007203370071033700700337006F0337006A
:1038B4006E0337006D0337006C0337006B0337006A
:1038C4006A0337006B033700680337006703370068
:1038D4006803370065033700640337006303370068
:1038E4006203370061033700600337005F0337006A
:1038F4005E0337005D0337005C0337005B0337006A
:103904005A03370059033700580337005703370069
:103914005603370055033700540337005503370067
:103924003A033700CD013700DE003700E3003700EB
:1039340021013700130137004C033700AA01370077
:103944004A03370049033700480337004903370067
:10395400F30237000A033700D90237002F02370079
:103964002E0237002D0237002C0237002B023700BD
:103974002A023700290237002802370027023700BD
:103984002602370039033700380337002301370094
:10399400B30037003503370047003700DA0037003B
:1039A400D70037003103370065003700F3003700D4
:1039B4002E0337002D0337002C0337002B03370069
:1039C4002A0337002903370028033700650037002E
:1039D400260337002503370024033700800037000F
:1039E4002203370021033700030137001F03370088
:1039F4001E0337001D033700D20037001B033700B6
:103A04001A03370019033700E1013700B802370001
:103A1400F0013700E7023700CD0237001303370007
:103A2400B50037002E0037003E003700C9003700CC
:103A34000E0337003000370031003700160037001E
:103A44001F00370009033700080337004D00370013
:103A540021003700050337002300370051003700E9
:103A6400020337004B023700E0003700FF02370043
:103A7400FE0237001E003700B4003700FB02370097
:103A8400FA023700F9023700C9013700770037001E
:103A9400D9013700780037008CFC07000000E000F3
:103AA400F4023A001241800082BF9F00034180006B
:103AB400C3B79F00EF023700BE2B0700ED023700AB
:103AC400B1FD070030E621001004E000E9023200F5
:103AD4009AFA0700E7023700E8FC0700E50237001E
:103AE4004DFD0700E30237008CFD0700E1023700BB
:103AF40040FA0700DF023700C8150700DD0237006F
:103B040030E621001004E00004003A000017280009
:103B140001002000A32B0700D60237004A15070036
:103B2400D402370080E62100C1CFB30010C8600082
:103B340040302800010020009A2B0700CD023700F6
:103B440080E62100C1CFB30090C060000104A00052
:103B5400014878004031280001002000912B070023
:103B6400C402370080E621001034A0008019280028
:103B7400010020005F2B070060BD2800C61F07005E
:103B8400BC02370080E621001034A1004018280050
:103B940001002000572B070060BD2800BE1F07004E
:103BA400B402370030E621001004E00004003A00BB
:103BB40000172800010020007A2B0700AD0237000F
:103BC400CB62A900C962A90040322800010020008C
:103BD400482B070060BD2800AF1F0700A50237006F
:103BE40030E621001004E00004003A000017280029
:103BF400010020006B2B07009E02370080E62100A5
:103C0400104078007040600003003A0020F927005B
:103C140001002000632B0700C962A800CB62A90041
:103C2400403E280001002000322B070060BD280020
:103C3400991F070021E3A800B0002000CA1D070057
:103C4400F1042000810F500003003E0020022800F0
:103C540001002000532B070021E3A900850237004F
:103C64000040EB0070FB07008202370010C0B30075
:103C74006DFB07007F02370030E621001004E000EE
:103C840004003A0011C0B300014078002A2807005C
:103C940078023700C02A280001002000412B0700C9
:103CA4007402370020882800010020003D2B070003
:103CB400EB1F07000000FE006E023700832B070095
:103CC4000004E0006B02320011C0B300A07F2200A8
:103CD400014878004071280001002000312B0700C2
:103CE40040062000CD1D0700841D0700DC1F0700CF
:103CF4000000FE005F023700D71607005D023700A0
:103D0400C81607005B0237000DFB070000047800AB
:103D14000800E0005702320069BD28000A00BE0016
:103D2400F42A0700D91607000080FB0085F7070076
:103D340009007800581F07000804E900F7FF3A005B
:103D44004C02370075F807004A02370059F807009B
:103D540048023700E051280001002000E52A07004E
:103D6400C11E07008094280001002000E12A0700FA
:103D740060BD2800481F07003E0237004C1F0700A3
:103D84003C023700EEFA070000047800007D2800AA
:103D940001002000D72A0700080078008E1E0700C3
:103DA400E092280001002000FE2A070008007800A5
:103DB4009F1D07002F023700E1FA07000004780076
:103DC400007D280001002000CA2A070008007800AE
:103DD400811E07004093280001002000F12A0700FB
:103DE400080078008D1D07002202370040E62100FC
:103DF4001020A0001F02370030E621001004E0006C
:103E040004003A000017280001002000E52A0700FA
:103E140018023700AF1607001602370081E62100AA
:103E24001174A0000004E8000884FB00E1CA21002A
:103E340061417C000204E0001800320016C0B300A7
:103E440011002000E5C3B3008043EB00F40F200011
:103E5400E3CA2100854F510001003A00074378006E
:103E64008100E800008140000401610063417900A1
:103E74000204E000F7FF3A0080E62100720020000F
:103E84000233DD00104178000274A100064871007D
:103E9400FA8F5000010034001074A00080E6210065
:103EA4001004E000F3013500184188000BFA070004
:103EB40000047800104180008080FB00E2CA2100E9
:103EC40062C17800D1C3B300814F510021003A0090
:103ED4008800E900E28F50001B003E000000E8006B
:103EE4000080FB0010418800010178007811B900BE
:103EF40030DB210080004100010178000000EB006C
:103F04008041EB00036978000000E800F80F5000DE
:103F1400FCFF3A0010418000E5CA2100E4C3B3006D
:103F2400F30F200003003700826878000000E800E7
:103F34000300600065417800844F5100FAFF3A00A5
:103F440010418800CB01370080E621001074A000E6
:103F5400C80137000800E00019003A0040DB2100E6
:103F6400F0B79F001E00200038C2280049BD280079
:103F7400DCB79F00EDB79F000A06BE00000578007D
:103F84000E4078000D1E070008007800551E07003B
:103F94000A007800531E070009007800BE1E0700BF
:103FA4000E07E80078054500E40F5700F4FF3A00D7
:103FB4000C05BE005FB69700EFB69700AD01370061
:103FC4000800E900E20F500004003E0060BD280034
:103FD400B11E070028418800A601370080E62100B1
:103FE4001074A000A30137000000E800F80F2000BF
:103FF4008801600013418800B8F907008004780044
:1040040079FA07001041800000046400E0CA21002E
:10401400E0407C0090C2B30080CF50000C003A0016
:1040240030E621009080FB00000320000088B900E6
:104034007C004000E1A92100E1007800090078003B
:104044000100010060BD2800931E070089013700AC
:1040540080E621001074A0008601370081E621006B
:104064001174A0008000E8008180FB00E2CA2100F6
:10407400E2C078000104E000130032000080E80090
:1040840015C0B30024C2B3000043EB00F30F2000BB
:1040940084CF500001003A0086427800830060001B
:1040A400E2C078000000E8000104E000F8FF3A00F4
:1040B40080E6210071002000812ADD009040780014
:1040C4000174A10005C8700080E621001004E0001E
:1040D40068013500607D280001002000052A0700E2
:1040E40020C2B3004B1D0700114180008100E8008D
:1040F4008180FB00E0CA210060C0780022C2B300C6
:10410400824F50001C003200E8CA210089E62100D9
:104114003EE62100114188003E1D07001041800049
:10412400684078000000FB0019417800E840610015
:104134000300320073E6210093407800911C0700CD
:104144001E81FB00010320000191B90068014100B8
:10415400E3A92100E300790001000100114180007E
:104164008100E8008180FB0068C0780022C2B300AF
:10417400824F5000E7FF3A001141880020C2B3008B
:10418400241D070060BD2800431E070039013700C5
:1041940030E621009080FB00000320000088B90075
:1041A400E2A921006200780000000100310137001B
:1041B40030E621009080FB00000320000088B90055
:1041C4000080E800E1A921006100780000000100FE
:1041D4002801370030E621009080FB000003200016
:1041E4000088B90064004000E1A921006100780062
:1041F400000001001F01370030E621009080FB0021
:10420400000320000088B90066004000E1A92100F5
:10421400610078000000010016013700607D28006D
:1042240001002000B32907002CF90700F0B79F0014
:104234002208ED000080FB0010418800C0F907004F
:104244000007E800D3F907000000E0004A0032004C
:1042540071E621008048780011C0B300E80F5000D7
:1042640001003C008040EB0080E621005200200069
:104274008208DD00104178000254A1000148710059
:104284003D0037007FB09700401E070002C2B30014
:1042940081E621001140610005003A0080C0B300AE
:1042A4008101E900934F100005003A00090037002E
:1042B40002C1B30071E62100914F110005003200E4
:1042C400B0C3B300D31C070073E621001340780089
:1042D4003A1D070081E621009140780068C0600023
:1042E4000500320072E62100924078007FB097000A
:1042F400241C0700F0B79F0033E621009380FB00E5
:10430400000320000088B90068004000E2A92100F1
:10431400E20078007FB0970001000100D0B79F0051
:1043240000C2B300BB1C070001C4B30083E6210034
:1043340013C06000120032000800BE006D2907009F
:1043440082E62100124178006840610005003200D5
:1043540073E62100934078005FB09700091C0700C2
:10436400D0B79F005FB09700081E070000C2B300DB
:10437400A81C070002003700288728000900200035
:104384000E07E900BFFF3A0060BD2800C21D070008
:10439400B8003700208728000100200055290700B5
:1043A400BFF50700E0EF9F0065F9070000047800FF
:1043B40078F907000000E0000C00320071E62100EB
:1043C4008048780011C0B300E80F500001003C00A1
:1043D4008040EB0080E62100520020008208DD00CE
:1043E400104178000254A100014871006FE8970061
:1043F4000004E0000500320020E62100904078002F
:10440400E1E79F006FE997000248E9000800E00037
:104414002200320089E621000907E90033E6210081
:104424001380FB00020320000280B9006A004000F0
:10443400E3A921006300780000000100194178001D
:10444400E8406100020032009E407800CD1B070066
:10445400CE1D070003C2B30019C0610004003A0076
:1044640080C0B3009E4F100004003A0007003700DC
:1044740001C1B3009ECF100004003200B0C3B300EA
:10448400641C07001E407800CC1C070000C2B30067
:10449400601C07000804E900E0FF3A006FE9970098
:1044A4000204E0000300320020E62100EFE197005F
:1044B4000348780060BD2800771D07006D003700B1
:1044C400C07D2800010020003629070030E62100C5
:1044D4009080FB00000320000088B9006C004000BD
:1044E400E1A92100610078000000010061003700AB
:1044F400207E2800010020002A29070030E6210040
:104504009080FB00000320000088B9006E0040008A
:10451400E1A9210061007800000001005500370086
:10452400805F2800010020001E29070030E62100DA
:104534009080FB00000320000088B9007000400058
:10454400E1A9210061007800000001004900370062
:1045540020602800010020001229070030E6210015
:104564009080FB00000320000088B9007200400026
:10457400E1A9210061007800000001003D0037003E
:10458400E05E280001002000DA28070030E6210060
:104594009080FB00000320000088B90074004000F4
:1045A400E1A92100610078000000010065F5070021
:1045B40030003700E2F80700000478001FB09700CD
:1045C400AFB09700CB280700080078006F1D0700E4
:1045D4000800E0000A00320039E62100EEA92100BB
:1045E4009980FB00000320000088B9007600400099
:1045F4006E007800000001000804E900F8FF3A00AA
:1046040060BD2800241D07001A003700CCF80700FD
:10461400000478003FA89700CFA89700B5280700AA
:104624000800E0000E00320039E62100EEA9210066
:104634009980FB00000320000088B9007800400046
:104644006E007800000001000080FB003DF50700CB
:1046540000C2B300EF1B07000804E900F4FF3A00AE
:104664000C00BE00CF2807000200370080E62100BE
:104674001074A0002208EC000080FB0010418800A8
:104684000040EB0081E621001104E00012003D002F
:1046940040342800010020009628070010418000C3
:1046A4008FB89700808F5000030031000140500004
:1046B400421C0700030037000FF19700024050002E
:1046C4003E1C070080E621001074A10060BD280094
:1046D400F11C070010C0B3000141800013418000A9
:1046E400818F5100020032000004E00061FC3200BE
:1046F4004FB09700104188000041880030DB210052
:104704000048EB003DFB370060408000E18321005E
:104714006141780031C8B300814F51000E003A0066
:104724000000E80060408800E183210061417800D6
:1047340001CEB300814F510007003E00E183210008
:104744008100400002CEB3000000E800D14F110008
:10475400FDFF36006040880000000600E28321006F
:10476400124278000041EB0003CEB300834F5200A5
:1047740023003600F28321001281FB004811DD0082
:10478400038421009381FB0003014100820F500048
:1047940010003A000B0037008202E80063C37A007D
:1047A4004833DD008282E800E3C27A008582FB00A0
:1047B40085024300850F5000030032000442B0001C
:1047C400080037000001EB008208780012C0B30033
:1047D4000B0037000442B0000001EB00E38321002A
:1047E40007CEB3000482FB006302420004014100CF
:1047F40063427900874F5200E7FF3E000041EB001F
:104804000240780000000600164180001041780044
:1048140011C0B3000204E00015003200E1CA210017
:10482400E1407B00814F5100070032000300370054
:10483400E5C17800834F510006003200164188001C
:104844008040EB000A00370086007800F40F200057
:10485400E5CA21008100E8008480600011418800DD
:10486400504178000204E000F1FF3A0011C0B300A7
:104874000140780000000600889FBE008A1F78006F
:10488400A9A728000004EB002A02200059007800A0
:10489400DDFF07000004E0000300320000C8B3009D
:1048A40000404400040037000804E8008A0F540064
:1048B400F6FF3A000040EB004F0578004F04BE00BD
:1048C40000000600889FBE008A1F78000C28EF00B5
:1048D400E0832100104478000804E000270032003F
:1048E400CAA7280080047800084078000804E00083
:1048F40002003500471B07001B00370000CEB30041
:10490400804F54000F003600609B2800621C070093
:10491400604080008080E8000000E8006941780081
:104924004811DD0069C078000080FB0000004100F0
:1049340061408800A81B070000C2B300351B0700B4
:104944000900370000C2B300321B07000884FB00D3
:104954000808B100080444006A007C00E11B070059
:1049640000C2B3002B1B07000C08EC006040880059
:10497400694478000804E000DBFF3A00609B2800EB
:10498400451C07000C08ED00931B0700407C280021
:1049940001002000032807004F0578004F04BE00E3
:1049A40000000600881F780071C9B300814F5000D1
:1049B400390032000A003E00E3C05000814F50002D
:1049C4001600320081C0E800814F500029003200F7
:1049D400E3C05000814F500046003A0018003700F1
:1049E400A1C9B300814F50003500320004003E00DD
:1049F40081C0E900814F50003E003A003800370082
:104A0400B1C9B300814F50003000320081C0E800CA
:104A1400814F500037003A001300370030E6210080
:104A24009080FB00000320000088B9006A00400069
:104A3400E1A9210061007800000001002E00370088
:104A440030E621009080FB00000320000088B900BC
:104A540068004000E1A92100610478008F0007008C
:104A64000800010024003700881307000080FB00C1
:104A74002100370030E621009080FB000003200075
:104A84000088B90074004000E1A9210061007800A9
:104A9400000001001800370030E621009080FB0080
:104AA400000320000088B90078004000E1A921003B
:104AB40061007800000001000080FB000E00370058
:104AC40010168000610060000B0037005016800053
:104AD4004B00DE00610060000080EA000600370041
:104AE40021E3A800C00020001F1A070021E3A90049
:104AF400010037000000EB004F04780000000600BE
:104B040062408000E0832100E040790080C2B3006D
:104B140080CF50000C003A000201E8006240880097
:104B24005E00070061408000E2832100E2C178005A
:104B340092C2B30082CF51002B003A008100E800FA
:104B44006140880028003700F0CBB30000C040006B
:104B5400F94F500008003E008180FB001104B100B1
:104B640081804000E0A32100608078000201E80019
:104B7400624088001C00370000C8B30080CF50009A
:104B840006003E0000CDB30000C04000E94F5000D5
:104B9400070036000000EB00130037000201E800B4
:104BA40062408800014078007EFF07000E00370055
:104BB400E3832100830141000000EB0006CDB30034
:104BC4006A02B9000180FB00040040000003B10048
:104BD4000201E800D340780006C24000E94F5200C9
:104BE400F7FF36006240880000000600889FBE0080
:104BF4008A1F7800C2FF070080047800EA8321003E
:104C0400A8C2B300614080006AC078008100E80057
:104C140061408800884F50000C00320004003E00C0
:104C240061C2B300814F500018003A0011003700F0
:104C3400F1C2B300814F500008003200C1C7B30075
:104C4400814F500011003A000D003700ACFF0700FF
:104C540000C8B90080047800EAFF3700A8FF070005
:104C640080017800110009008304D80080047800D2
:104C7400E4FF3700A2FF070080846400E1FF3700EF
:104C84009FFF070089047000DEFF370009007800E9
:104C94004F0578004F04BE0000000600889FBE0048
:104CA4008A1F7800D1FF070000047800EA832100FE
:104CB400C9C3B300614080006AC078008100E80085
:104CC40061408800894F50002900320007003E00EF
:104CD400B1C2B300814F50000E00320081C0E80021
:104CE400814F500048003A0007003700D2C3B30098
:104CF400824F50003D0032000241E800824F5000D4
:104D040041003A0006003700B8FF070000045400D1
:104D1400E8FF3700B5FF070000044400E5FF370053
:104D24008100E800EAC07800D0C3B30080CF50000F
:104D340008003A00ADFF070011002000880F500062
:104D4400010034008000EB00010478000C28EC0022
:104D5400D8FF3700A5FF070011002000880F50007E
:104D6400010035008000EB0001047800D1FF37001A
:104D74008100E8006AC07800E1C3B300814F5000AD
:104D840008003A0099FF07000804680008F0A7002B
:104D94000804EA000804EA004F44DE000C28EC0092
:104DA400C4FF3700D1C3B300814F500008003A005C
:104DB4008EFF070011002000880F500001003D0005
:104DC4008000EB00010478000C28EC00B9FF3700E8
:104DD40086FF070011002000880F500001003C00EE
:104DE4008000EB0001047800B2FF37007FFF07006A
:104DF4000804680008F0A7000804EA000804E900B1
:104E04004F44DE00ABFF3700080078004F05780000
:104E14004F04BE0000000600F0874700889FBE00D4
:104E24008A9FBE008C9FBE008E1F78000C28EF0066
:104E34000E28EF001028EF001228EF0040E62100B2
:104E44001000A000E0A32100190009000018EB00E5
:104E54008000EB000006EB008005EB00E9832100F5
:104E6400EDC8B3002AC2B3000100E0000E003A000E
:104E740060408000E9457800F1CDB30081CF550052
:104E8400120336008B85FB000B0EB1008000E80096
:104E940069C678004866DD000080E8006940780053
:104EA4000080FB000C06700062408000E3014100BA
:104EB40069C079000080FB008000EB000008B100AD
:104EC4000180B10014022000840F5000E08F5800CC
:104ED400DE023E0000600100210037002E00370092
:104EE400DA023700D9023700550037006100370075
:104EF40079003700880037008C003700CA0037007B
:104F0400F8003700D1023700390137007D0137003E
:104F1400C4013700D5013700C7013700EF0137005E
:104F2400E0013700FB013700C8023700790237007F
:104F34005E023700C5023700C40237001E02370084
:104F44000F0237009A023700A70237000002370029
:104F54002B02370044023700AB023700B902370096
:104F640066004100604088006401410069447900A2
:104F74000884FB001804B10048FF0700080444003B
:104F8400E1A3210080307C00DFFD07008000EB00FE
:104F94000044EB00B1023700640141006240880024
:104FA4003EFF07000000E00009003A006140800075
:104FB40069C0780032C8B300824F50001B00320031
:104FC40002CEB300824F50000E003600BC02370000
:104FD40060408000E94178000000E80060408800FB
:104FE4008000EB000044EB0022C8B30082CF5100E4
:104FF4009A023A00630050006040880011002000CB
:10500400960237000981400033C8B30004CEB300D0
:105014008100E80052407800834F500003003200C2
:10502400844F5000FAFF3600A40237008180E90063
:1050340061408800110020000044EB008702370023
:10504400640141006240880014FF0700FC8057009F
:10505400C2FD07008000EB0068C0B3000004E0005C
:105064007E023200AFB29700654088000044EB0036
:105074007A02370064014100624088008040800069
:105084008000EB0078C0B300E90F500073023E00CB
:105094008000400023A72100818041000201E90033
:1050A4008B0841000000E80080408800FBFE0700F8
:1050B400FC805700A9FD07008000EB0068C0B30026
:1050C4000004E000650232002FB0970060408800C1
:1050D4000044EB0061023700709B2800011A0700AE
:1050E400804080008000EB0088C0B3000000E00036
:1050F4005A0232000000E9008040880000004000AD
:1051040021A72100E1007800614088008000EB00C5
:105114000044EB005102370083814500634088005E
:105124008000EB000044EB004C02370064014100B6
:105134006240880048E62100250037008A4F50006D
:1051440010003A008100E80069C078008A4F5000DE
:10515400090032001800A1008100E80061408800C5
:105164002C1907001800A0006140800069C0780075
:105174008A4F5000F7FF3A008100E8006140880040
:1051840013003700F2CBB30002414000F94F510045
:105194000500360003C8B30083414000F2C5B300E4
:1051A40082CF510005003E00BCFE07001800A1009C
:1051B400891907001800A00005003700B2C3B30026
:1051C400824F500002003A008100E80061408800EC
:1051D4006140800069C07800F2CDB300824F500076
:1051E40003003E0032C8B300824F5000D3FF3A00A0
:1051F4008100E900E9C07800B0C3B30080CF50005B
:105204000500320048E621001800A100609B280038
:10521400211A07001800A0003BFD07008000EB00E6
:105224000044EB000D02370040E621001000A1000D
:1052340061408000E48040006140880069C07800DB
:105244008A4F50000D003A008100E80069C07800E0
:105254008A4F5000070032008100E8006140880056
:10526400EC1807006140800069C078008A4F500044
:10527400F9FF3A008100E800614088006040800046
:105284006941780038C0B300C1C2B300814F5100F6
:1052940003003A000000E800604088000044EB008E
:1052A40060408000694778000E87FB001E04B1004F
:1052B4008001EB00F2FF27006000B800FBF5070057
:1052C4000E074700E1A3210080307F000C28EC008A
:1052D4000DFD070040E621001000A0008000EB0057
:1052E400DE013700640141007040800048C0B30013
:1052F400E30F500003003E000000E8007040880007
:105304000044EB00694779000E87FB000E04B100EE
:10531400704080006600B90083A82100008041002D
:105324000E487800C870DE00114098000201E800C1
:1053340062408800E9407900D0C3B30080CF5000B8
:1053440008003A000201E8006240880053FE0700AA
:105354000E07E9000E074700E1A3210080307F001B
:105364000100370038C0B30060408000E940780095
:105374000000E80060408800B0C8B30080CF50004F
:1053840009003A007E40800044FE07006671B900BF
:10539400A1A8210082804000804878004800DE00F7
:1053A400904098000100370038C0B300604080008E
:1053B40069417800F1CDB300814F510008003600F7
:1053C400724080006611B90061A82100828040000B
:1053D400804878004800DE009040980001003700C3
:1053E40038C0B300C8FC07008000EB009B01370005
:1053F40064004100E94278008582FB000504B100A5
:1054040065014100C2B79F007640800086017800A4
:105414000000EB0058C0B30061A821008503E90037
:1054240087834300EEA3210007014700B2B79F0022
:1054340085BF9F0001003700030378006602B900AE
:10544400D4B79F00E5B79F000481E800614279006A
:105454000482FB0002814000124190004811DD00EB
:10546400020272008FBA9700850F52001C003A00A6
:105474006E817B00F2B79F006602B90064014200AE
:10548400614479000884FB000281400012419000CD
:105494004811DD0002017400FFB29700828F5200B0
:1054A4000D0031003FB197000509E8006602B9001C
:1054B40004017800614279000482FB00028140000B
:1054C400124190004811DD0002017200C2B79F0032
:1054D4000044EB00020037008601E9000044EB00C1
:1054E4000000E800808F5100D3FF3100CFB2970055
:1054F400654088007340880083FC07008000EB004F
:105504005601370064014100624088000044EB000A
:105514001208E2001C003A001084210090CF16000B
:10552400110032009940780098C0B3000104E000F3
:10553400150032000000EB008180FB00D10DB100AA
:1055440001004000E3004000E9C078008DCF500026
:1055540006003200E94078000104E000F6FF3A005A
:1055640098C0B300080037000000EB00E940780061
:1055740098C0B3000104E00003003200640040005E
:10558400904088000044EB006E4080001208F80050
:105594000C08F90069407F000080FB00F1FB2F003C
:1055A40081004000D1B79F0055FD07005FB197000F
:1055B40082004100E2A3210000B178006040800035
:1055C400904088000E07E8006E408800694178002A
:1055D400C1C2B300814F510002003A000000E8004C
:1055E40090408800904080006941780001CEB3006B
:1055F400814F510008003600E3004000E9C0780004
:105604008DCF5000020032001228EF000200370054
:1056140064004000904088003BFC07008000EB00E1
:105624000E01370083814500634088008000EB0051
:105634000044EB0009013700640141006240880026
:1056440030E621009080FB00000320000088B900B0
:10565400E2A9210062007800000001002AFC070092
:105664008000EB000044EB00FC00370064014100C3
:105674006240880030E621009080FB000003200097
:105684000088B9000080E800E1A9210061007800E9
:10569400000001001CFC07008000EB000044EB004C
:1056A400EE003700640141006240880030E62100CA
:1056B4009080FB00000320000088B90064004000D3
:1056C400E1A9210061007800000001000EFC070040
:1056D4008000EB000044EB00E0003700640141006F
:1056E4006240880030E621009080FB000003200027
:1056F4000088B90066004000E1A92100610078003B
:105704000000010000FC07008000EB000044EB00F7
:10571400D2003700640141006240880030E6210075
:105724009080FB00000320000088B900680040005E
:10573400E1A921006104780058FD07000800010078
:10574400F1FB07008000EB000044EB00C3003700CE
:10575400640141006240880050FD07000000E00041
:10576400020032002F100700010037003A10070032
:10577400E5FB07008000EB000044EB00B7003700B6
:10578400640141006240880044FD07000000E0001D
:1057940003003200C002A900C202A80002003700C0
:1057A400C002A900C202A900D7FB07008000EB00D9
:1057B4000044EB00A9003700640141006240880006
:1057C40036FD07000000E0000600320080E62100FC
:1057D400C1CFB30090C060000104A000014878006C
:1057E4000300370080E62100C1CFB30010C8600079
:1057F400C5FB07008000EB000044EB009700370076
:1058040026FD07000004780024FD070080007800CE
:10581400400020000C28B4000800E00001003D0016
:105824000004EB000800780002FA2000820F500008
:1058340001003400020078000100E00001003C0097
:105844001100200042062000828F50000100340025
:1058540082007800D00D0700ABFB07008000EB004E
:105864000044EB007D0037000CFD07008000780049
:10587400400020000C28B4000100E00001003C00BE
:10588400110020000100780041062000810F500023
:105894000100340001007800E70D07009AFB0700BF
:1058A4008000EB000044EB006C0037006401410011
:1058B40062408800F9FC07000000E00009003200A3
:1058C40030E621009080FB00000320000088B9002E
:1058D40070004000E1A9210061007800000001008F
:1058E4000800370030E621009080FB000003200010
:1058F4000088B90072004000E1A92100610078002D
:105904000000010080FB07008000EB000044EB0076
:10591400520037006401410062408800DFFC070048
:10592400E10F50000D003200E20F5000140032006D
:105934000000E0001A003A0030E621009080FB00ED
:10594400000320000088B9006E004000E1A9210096
:1059540061007800000001001100370030E62100EA
