:100000000C94CE000C94F6000C94F6000C94F600C0
:100010000C94F6000C94F6000C94F6000C94F60088
:100020000C94F6000C94F6000C9443040C94B20467
:100030000C94F6000C94F6000C94F6000C94F60068
:100040000C94F6000C94F6000C94F6000C94F60058
:100050000C94F6000C94F6000C94F6000C94F90342
:100060000C94F6000C94F6000C94F6000C94F60038
:100070000C94F6000C94F6000C94F6000C94F60028
:100080000C94F6000C94F6000C94F6000C94F60018
:100090000C94F6000C94F6000C94F6000C94F60008
:1000A0000C94F6000C94F6000C94F600080B000279
:1000B0000202000009040000010202000005240001
:1000C0001001052401010104240206052406000193
:1000D0000705810310004009040100020A00000026
:1000E00007050202400000070583024000000403E8
:1000F000090412010002EF02014041233680000191
:100100000102030141726475696E6F204C4C43001B
:1001100041726475696E6F204C656F6E6172646FB9
:10012000000000000200090F0000030401000C00A1
:1001300000000000000000000000000000000000BF
:1001400000000000250028002B002E0031000000D8
:100150000000240027002A002D00300004040404BD
:10016000040304050202020204030202020206065C
:100170000606060604040202020404040802011032
:1001800040804010204080408008020401804020D0
:1001900010020110801020404020D10711241FBE02
:1001A000CFEFDAE0DEBFCDBF11E0A0E0B1E0ECEDD3
:1001B000FFE002C005900D92A63DB107D9F722E0FD
:1001C000A6EDB1E001C01D92A534B207E1F710E041
:1001D000CEECD0E004C02197FE010E94E607CD3CA2
:1001E000D107C9F70E94E4060C94EC070C940000B8
:1001F00090E0FC01E558FE4F2491845A9E4FFC018B
:100200008491882399F090E0880F991FFC01E25BAC
:10021000FE4FA591B491FC01E05CFE4F8591949155
:100220008FB7F894EC91E22BEC938FBF0895FC010B
:1002300080914402882311F13FB7F89482E08093C3
:10024000E9002091F200822F90E01816190614F4AC
:1002500081E090E0882339F0289844E640934302F7
:100260004091F1004083222339F02091F2002111C6
:1002700003C02BE62093E8003FBF08958FEF9FEF68
:1002800008952FB7F89483E08093E9009091E800F7
:10029000892F807295FF04C09091F20080E4891B41
:1002A0002FBF089580913B0281110DC082E08093A1
:1002B000370284E08093380210923A021092390299
:1002C00081E080933B0287E392E00895282F30E09D
:1002D000F901EF5DFE4F9491F901E558FE4F8491CD
:1002E000245A3E4FF9012491222309F430C0992366
:1002F000E9F091509F30D0F4E92FF0E0EE57FE4F37
:100300000C94E607B001B4019101A801AC0196017B
:1003100096019601B701BD01C101C501CB0196014E
:10032000CF01909180009F7790938000E22FF0E0C2
:10033000EE0FFF1FE05CFE4FA591B4919FB7F894BC
:10034000EC91611132C080958E238C939FBF0895EC
:10035000909180009F7DE8CF90918000977FE4CFBF
:1003600094B59F7794BDE2CF94B59F7DFBCF9091DC
:1003700090009F7790939000D9CF909190009F7DAF
:10038000F9CF90919000977FF5CF9091C0009F7723
:100390009093C000CBCF9091C0009F7DF9CF9091FA
:1003A000C200977F9093C200C1CF8E2BCECF3FB7B4
:1003B000F8948091330290913402A0913502B0916B
:1003C000360226B5A89B05C02F3F19F00196A11D46
:1003D000B11D3FBFBA2FA92F982F8827BC01CD018F
:1003E000620F711D811D911D42E0660F771F881FEE
:1003F000991F4A95D1F708958F929F92AF92BF921D
:10040000CF92DF92EF92FF924B015C010E94D701E5
:100410006B017C010E94D7016C197D098E099F092F
:10042000683E734081059105A8F321E0821A910886
:10043000A108B10888EEC80E83E0D81EE11CF11CAB
:1004400081149104A104B10429F7FF90EF90DF908B
:10045000CF90BF90AF909F908F9008954091D8011A
:100460005091D9012091D6013091D70142175307FD
:10047000B4F49091E8009570E1F39091E80092FD5A
:1004800019C08093F1008091D8019091D901019613
:100490008F739927892B19F48EEF8093E800809150
:1004A000D8019091D90101969093D9018093D801F8
:1004B00081E0089580E00895EF92FF920F931F93DB
:1004C000CF93DF93F82E192FE62E042F81E0860FAD
:1004D000880F0E942E0283E00E942E02CF2DD12F82
:1004E000EC0EFD2EF11CCE15DF05B9F007FF13C091
:1004F000FE0184910E942E02182F80E00E942E029D
:10050000812321968111EFCFDF91CF911F910F9120
:10051000FF90EF9008958881EDCF81E0F5CFDF92D5
:10052000EF92FF920F931F93CF93DF93D82E8A0100
:10053000EB017B01E40EF51ECE15DF0559F0D7FE69
:1005400012C0FE0184910E942E0221968111F4CFE7
:100550000FEF1FEFC801DF91CF911F910F91FF9017
:10056000EF90DF9008958881EECF0F931F93CF9384
:10057000DF931F92CDB7DEB782E0898342E450E07B
:100580006CEA70E080E80E948F020E945201DC0158
:1005900012960D911C910115110589F0D801ED916C
:1005A000FC910280F381E02DBE016F5F7F4FC80197
:1005B000099597FD04C0F80100851185ECCF89816C
:1005C0000F90DF91CF911F910F910895615030F0FE
:1005D0002091F100FC0120830196F8CF289884E651
:1005E0008093430208958F929F92AF92BF92CF92D1
:1005F000DF92EF92FF920F931F93CF93DF936C01E3
:100600007B018A0180910B01882309F45CC08091F1
:100610004402882309F457C08091DC0180FF05C0A3
:100620008091E00082608093E000E801B12C8AEFC5
:10063000A82E93E0892E2AE3922E209711F4BB2056
:10064000D9F10E94410181110AC0AA94AA20D9F1CE
:1006500061E070E080E090E00E94FC01EECF8C173A
:100660001D0611F00CF08C2F9FB7F8948092E900D2
:100670002091E80025FD02C09FBFDFCF282F30E08A
:10068000C21BD30BF701815020F041914093F10040
:10069000FACFE20EF31EBB2021F09092E800B12CBD
:1006A000EBCF8091E80085FDE7CF9092E800BB2476
:1006B000B394209709F3F3CF5D9884E68093DB0130
:1006C000101611063CF081E090E0F60193838283DE
:1006D00010E000E0C801DF91CF911F910F91FF90D2
:1006E000EF90DF90CF90BF90AF909F908F90089544
:1006F000CF93DF931F92CDB7DEB76983DC01ED9115
:10070000FC910280F381E02D41E050E0BE016F5F7B
:100710007F4F09950F90DF91CF91089583E08093EB
:10072000E9008091F200882319F08AE38093E800C1
:1007300008950E94410190E00895CF93DF931F92A6
:10074000CDB7DEB7FC018485958597FD08C02FEFF6
:100750003FEF358724870F90DF91CF910895CE0129
:1007600001960E941701019719F4898190E0F3CF57
:100770008FEF9FEFF0CF0F931F93CF93DF931F92D5
:10078000CDB7DEB78C01FC018485958597FF0BC042
:10079000CE0101960E941701019771F4898190E0C2
:1007A000F80195878487F801848595850F90DF91FE
:1007B000CF911F910F9108958FEF9FEFF1CFFC0123
:1007C0008485958597FD0BC09FB7F89482E0809350
:1007D000E9008091F2009FBF90E0019608959FB7D5
:1007E000F89482E08093E9008091F2009FBF90E04E
:1007F00008951F920F920FB60F9211242F933F93DB
:100800008F939F93AF93BF9380912F02909130026B
:10081000A0913102B091320230912E0223E0230FD9
:100820002D3758F50196A11DB11D20932E028093FE
:100830002F0290933002A0933102B0933202809144
:10084000330290913402A0913502B09136020196A4
:10085000A11DB11D8093330290933402A093350201
:10086000B0933602BF91AF919F918F913F912F919D
:100870000F900FBE0F901F90189526E8230F029639
:10088000A11DB11DD2CF1F920F920FB60F9211244E
:100890008F939F938091E1009091E100937F9093DB
:1008A000E10083FF0FC01092E90091E09093EB000C
:1008B0001092EC0092E39093ED001092440298E0C5
:1008C0009093F00082FF22C093E09093E900909112
:1008D000F200992319F09AE39093E8009091DB01DC
:1008E000992341F09091DB0191509093DB0191119C
:1008F00001C05D9A90914302992341F09091430287
:10090000915090934302911101C0289A84FF18C01E
:100910008091E2008E7E81608093E2008091E10010
:100920008F7E8093E1008091DC018E7E80618093D8
:10093000DC019F918F910F900FBE0F901F90189523
:1009400080FFF7CF8091E2008E7E80618093E2008D
:100950008091E1008E7E8093E1008091DC018E7EAB
:100960008160E5CF1F920F920FB60F921124CF92A4
:10097000DF92EF92FF920F931F932F933F934F932A
:100980005F936F937F938F939F93AF93BF93EF93F7
:10099000FF93CF93DF93CDB7DEB76C97DEBFCDBFAC
:1009A0001092E9008091E80083FF25C068E0CE0145
:1009B00045960E94E60282EF8093E8008D8987FFCA
:1009C00039C09091E80090FFFCCF982F907609F005
:1009D00034C19E894F89588D2F89F88C911131C06F
:1009E000803861F58091DD018093F1001092F10073
:1009F0008EEF8093E8006C960FB6F894DEBF0FBEC2
:100A0000CDBFDF91CF91FF91EF91BF91AF919F91BA
:100A10008F917F916F915F914F913F912F911F9196
:100A20000F91FF90EF90DF90CF900F900FBE0F903F
:100A30001F9018959EEF9093E800C7CF1092F10099
:100A4000D5CF913059F48111D3CF4130510581F682
:100A50008091DD018D7F8093DD01CACF933049F411
:100A60008111C6CF4130510519F68091DD018260B8
:100A7000F2CF953041F48091E80080FFFCCF2068F0
:100A80002093E300B5CF963009F0A9C00B8D1C8DE3
:100A900022E01092E9001092D9011092D801F212CE
:100AA0002EC01092D7011092D6010E94B5021F826B
:100AB00099E09983FA8291E09E8390EA98879AEF71
:100AC00099872091D8013091D901275F3F4F3C830E
:100AD0002B838D831092E9001092D9011092D801D6
:100AE0001093D7010093D60149E050E0BE016F5F3B
:100AF0007F4F80E00E948F020E94B50279CF109351
:100B0000D7010093D6010E945201DC0112960D918B
:100B10001C910115110509F451C1D801ED91FC9109
:100B20000480F581E02DBE016B5E7F4FC801099501
:100B3000009709F03EC1F80100851185EACFF3E086
:100B4000FF120EC08F89882309F440C0823061F4FF
:100B500040E860E180E191E00E945C02811148CFB1
:100B600081E28093EB0047CF813029F440E86BE0CD
:100B700084E091E0F1CF833099F70E945201DC01CB
:100B80001296ED90FC908E010F5F1F4F6801E114EB
:100B9000F10479F0D701ED91FC910680F781E02D09
:100BA000B801C7010995080F111DF701E084F18410
:100BB000EECFD8011C92F60101900020E9F73197A1
:100BC000BF016C197D0940E0C601C6CF6EEE70E032
:100BD000FB01449150E080E80E948F0209CF9730DA
:100BE00009F4BECF983021F481E08093F10000CF6A
:100BF000993009F0FDCE837009F0B2CFEFE1F1E05A
:100C000081E031E096E32191222371F08093E900A5
:100C10003093EB00DF0111972C912093EC0090931F
:100C2000ED008F5F873079F78EE78093EA001092AE
:100C3000EA008F8980934402DBCE8B8D9C8D1092CD
:100C4000E9001092D9011092D8019093D7018093B6
:100C5000D601898D811192C08E899D89913A49F47E
:100C6000813209F07DCF47E050E064E071E080E040
:100C7000B3CF913209F074CF833269F48F89988DA4
:100C8000B0E0A0E08093000190930101A0930201E5
:100C9000B0930301ADCE803269F48091E80082FF09
:100CA000FCCF67E084E091E00E94E6028BEF809346
:100CB000E8009ECE823209F09BCE8F8980930B0193
:100CC000EEEFFFE7859194918B3F9C4D51F1E0E071
:100CD000F8E08091040190910501A0910601B09186
:100CE0000701803B9440A105B105F1F480910B010F
:100CF00080FD1AC0EE3F8AE0F80789F587E797E79D
:100D000091838083809160008093DA0188E19BE089
:100D10000FB6F894A895809360000FBE9093600082
:100D200067CEEEEFFAE0D5CF808191818737974784
:100D300009F05ECEA8958091600088618093600084
:100D40008091DA0180936000EE3F2AE0F20789F09B
:100D50008091FE0A9091FF0A9183808349CE808121
:100D600091818737980751F29093FF0A8093FE0A8A
:100D7000C5CF1092FF0A1092FE0A3ACE0E9452018D
:100D8000DC0112960D911C910115110509F4E8CEB4
:100D9000D801ED91FC910190F081E02DBE016B5ED8
:100DA0007F4FC8010995811123CEF8010085118577
:100DB000EBCF181619060CF41BCED2CEF1E0FF12C1
:100DC000BECE62EF70E004CF789484B5826084BDBB
:100DD00084B5816084BD85B5826085BD85B581603F
:100DE00085BD80916E00816080936E0010928100BD
:100DF0008091810082608093810080918100816078
:100E00008093810080918000816080938000809138
:100E10009100826080939100809191008160809325
:100E20009100809190008160809390008091C1003A
:100E300084608093C1008091C10082608093C10072
:100E40008091C10081608093C1008091C300816066
:100E50008093C3008091C00082608093C000809125
:100E6000C20081608093C20080917A008460809388
:100E70007A0080917A00826080937A0080917A0073
:100E8000816080937A0080917A00806880937A00F4
:100E9000109244021092DD011092DC018091D70083
:100EA00081608093D70080EA8093D80089B5806103
:100EB00089BD89B5826089BD09B400FEFDCF61E0BE
:100EC00070E080E090E00E94FC018091D8008F7C6F
:100ED00080618093D8008091E000807F8093E00063
:100EE0008091E1008E7E8093E1008DE08093E200AE
:100EF000559A209A8CE00E94F80061E08CE00E94F4
:100F000066018BE00E94F80061E08BE00E946601C0
:100F10008FEF9FEF9093EB018093EA01C0E0D0E068
:100F200040EB50E065E271E08EED91E00E94F3024B
:100F300042E050E063ED71E08EED91E00E94F3023B
:100F400064EF71E080E090E00E94FC018EED91E0A2
:100F50000E94DF031816190684F48EED91E00E94BA
:100F60009D0320ED280F243040F49927813391050B
:100F700089F044F460E0C09771F0209789F20E94F4
:100F80000000CECF8233910551F061E0C397A9F7FD
:100F90008BE002C061E08CE00E946601EECF60E071
:100FA000F7CFEEEDF1E01382128288EE93E0A0E03D
:100FB000B0E084839583A683B78380E191E0918339
:100FC00080838FEF9FEF958784870895EE0FFF1F33
:0C0FD0000590F491E02D0994F894FFCFF7
:100FDC00FFFFFFFF00E10000000000000000000028
:100FEC007803F30299038E03DF039D03BB0300C157
:100FFC0080810000005772697465206F6E65206FE8
:10100C00662074686520666F6C6C6F77696E6720FC
:10101C006E756D626572733A0A434F4E4E4543547A
:10102C005F5553425F504F5745525F4348415220E2
:10103C0020202020203D202730270D0A44495343EF
:10104C004F4E4E4543545F5553425F504F57455298
:10105C005F434841522020203D202731270D0A4371
:10106C004F4E4E4543545F5047445F5047435F4398
:10107C0048415220202020202020203D20273227AC
:10108C000D0A444953434F4E4E4543545F50474419
:10109C005F5047435F4348415220202020203D2091
:0610AC002733270D0A00A6
:00000001FF
